:020000040800F2
:1000000040080020610100084D1800084B18000846
:1000100000000000000000000000000000000000E0
:10002000000000000000000000000000511800085F
:1000300000000000000000004F18000853180008DE
:1000400073010008730100087301000873010008C0
:1000500073010008730100087301000873010008B0
:1000600073010008730100087301000873010008A0
:100070007301000873010008730100087301000890
:1000800073010008730100080000000073010008FC
:100090007301000873010008730100087301000870
:1000A0007301000873010008730100087301000860
:1000B000A51B0008000000007301000800F002F812
:1000C00000F03EF80CA030C8083824182D18671E20
:1000D000A246AB4654465D46AC4201D100F030F832
:1000E0007E460F3EB6460FCC0126334200D0FB1AA7
:1000F0003343A246AB461847901E0000B01E0000D6
:10010000103A02D378C878C1FAD8520701D330C860
:1001100030C101D504680C60704700000023002442
:1001200000250026103A01D378C1FBD8520700D32E
:1001300030C100D50B6070471FB51FBD10B510BD95
:1001400000F090F81146FFF7F7FF01F031FD00F0E5
:10015000A8F803B4FFF7F2FF03BC00F0AFF800000B
:100160000748804707480047FEE7FEE7FEE7FEE74F
:10017000FEE7FEE704480549054A064B70470000C4
:100180005B180008BD000008400200204008002065
:10019000400400204004002010B5202A04DB08465B
:1001A000203AD040002110BD0B462024D340D0403F
:1001B000A21A91400843194610BD000030B5441CF6
:1001C00003E00178401C00290DD08107F9D10B4BC9
:1001D000DD0104C8D11A91432940FAD0001B0A0658
:1001E00003D0C01E30BD001B30BD0A0401D0801EEC
:1001F00030BD0902FCD0401E30BD000001010101EC
:100200007047704770471F22030C02D10F22000471
:100210001CD0030E01D10002083A030F01D10001E6
:10022000121F830F01D18000921E002801DB4000C5
:10023000521ED2055118021251181922904004D3AF
:10024000491C002801D14908490008467047C10FE0
:10025000C90700D04042012292071143D3E7012190
:100260008907D0E7754600F025F8AE4605006946D7
:100270005346C008C000854618B020B5FFF77AFF86
:1002800060BCB64600260027C0C5C0C5C0C5C0C5F5
:10029000C0C5C0C5C0C5C0C5403D490849008D4660
:1002A000704710B50446C046C0462046FFF751FFD0
:1002B00010BD000000487047400000200149182090
:1002C000ABBEFEE7260002007047B0B50C460546FF
:1002D000FFF774FF810700D0001D03218843012828
:1002E0000DDB296821702968090A61706988A1708D
:1002F000E978E1702D1D001F241D0028F1D1B0BD4B
:10030000F0B581B0054600F031FC0646254F38684F
:10031000C00716D13868800601D5202038603868BB
:10032000C00606D43868400703D40024204601B034
:10033000F0BD3868C0061FD40020396849072BD5A6
:1003400023E00324002DF1D0681C0CD13868C007CD
:10035000E0D03868C007DDD03868C007DAD0386828
:10036000C007F3D1D6E700F001FC801BA842DDD81E
:100370003868C007F7D1CDE70B48C16902220A43AC
:10038000C26110203968490706D50749CA690123A7
:100390001343CB610421084338600124204601B097
:1003A000F0BDC0460C2002401802002070B5541C5D
:1003B000032323400BD0044640CC0D4640C5012BFF
:1003C00009D1531E20462946032A24D314E013469C
:1003D000032A20D310E044684C60022B05D1931E01
:1003E00008310830032A16D306E083688B60D31ED9
:1003F0000C310C30032A0ED302680A6042684A604E
:1004000082688A60C268CA60103110301A1F9BB2BD
:10041000032B1346F0D170BD016840680846704751
:10042000F0B585B014460D46064600F0ABFA012043
:1004300081030391C006029000278022009504E00A
:1004400003983F18103A00D1D3E082483818B042E0
:1004500003D902997B18B3425BD97F497B18B34219
:1004600001D9B04254D97D483818B04201D9B342BD
:100470004FD97B497B18B34201D9B04248D979485A
:100480003818B04201D9B34243D977497B18B342F7
:1004900001D9B0423CD975483818B04201D9B342AD
:1004A00037D973497B18B34201D9B04230D971486A
:1004B0003818B04201D9B3422BD96F497B18B342E7
:1004C00001D9B04224D96D483818B04201D9B3429D
:1004D0001FD96B497B18B34201D9B04218D969487A
:1004E0003818B04201D9B34213D967497918B142DB
:1004F00001D9B0420CD965483B18B34201D9B14289
:100500007BD963483818B0429AD9B34298D800E0F2
:100510000346A000871900218020019404E0039A7B
:1005200089181038019C66D04A4A8D18BD4203D9FB
:10053000029A8A18BA4266D9474A8A18BA4201D939
:10054000BD4254D9454D4D19BD4201D9BA425AD97F
:10055000434A8A18BA4201D9BD4248D9414D4D1982
:10056000BD4201D9BA424ED93F4A8A18BA4201D98E
:10057000BD423CD93D4D4D19BD4201D9BA4242D987
:100580003B4A8A18BA4201D9BD4230D9394D4D197A
:10059000BD4201D9BA4236D9374A8A18BA4201D97E
:1005A000BD4224D9354D4D19BD4201D9BA422AD98F
:1005B000334A8A18BA4201D9BD4218D9314D4D1972
:1005C000BD4201D9BA421ED92F4A8C18BC4201D96A
:1005D000BD4214D92D4A8A18BA4201D9BC4210D959
:1005E0002B4C0C19BC429AD9BA4298D80AE02A4638
:1005F00009E000238DE7002205E00B4689E72A4643
:1006000000E02246019C009D22480027D11A890A59
:10061000491C07604360816004A900F099F8002834
:1006200008D000F0F7F80746384605B0F0BD2D1D9C
:10063000641E361D002C08D02A6802200023314693
:1006400000F0F6F80028F2D0EBE700F0E7F83846C3
:1006500005B0F0BD0004000800080008000C000808
:10066000001000080014000800180008001C000812
:10067000002000080024000800280008002C0008C2
:10068000003000080034000800380008003C000872
:10069000004000080801002080B5034B19600122CA
:1006A0001946FFF7BDFE80BD8C01002010B5014644
:1006B00020314A78022A12D1026813680E24A3431B
:1006C000136013680124A3431360C26B006C2346BC
:1006D000834053604C70002000220A7010BD042239
:1006E0008263012000220A7010BDB0B5014620319E
:1006F0004A78022A16D1026813680E24A3431360B5
:1007000013680125AB431360C26B036C2C469C40FD
:10071000546000240C704D70416B002900D0884754
:100720002046B0BD042181630120B0BDB0B50446B0
:1007300000F01CFA0546601C02D004480078041939
:1007400000F014FA401BA042FAD3B0BD34000020E0
:10075000F0B583B00D460146874E307E012803D1A7
:100760000227384603B0F0BD012737760C6884486D
:100770000291FFF7C5FD012C14D1002845D10020BE
:10078000F0612A4C2068042528432060206840211D
:10079000014321607A48FFF7B3FD07462068A8436C
:1007A000206032E0002830D100200190C043009545
:1007B000286002984568806880024019854224D2EA
:1007C0001A4C0198F0612068022630432060656071
:1007D00020684021014321606948FFF791FD0746E9
:1007E0002068B0432060002F0CD1012080022D181A
:1007F0000299486889688902081885425E4EE0D3EC
:10080000019F02E0009805605B4E0020307638467C
:1008100003B0F0BD5848C0697047C046034801683E
:1008200080220A43026000207047C0461020024028
:10083000F0B585B0504C257E012D03D102273846F6
:1008400005B0F0BD01AD0FC50127277600F08EF988
:1008500005464A4E3068C00708D0494C00F086F97A
:10086000401BA0422CD83068C007F7D13068800602
:1008700001D5202030603068C0063F4A09D4306876
:10088000400706D4019902291DD1009101291ED0EB
:100890001EE03068C00604D400203168490708D43F
:1008A0000CE0D06902210143D16110203168490771
:1008B00004D5D1693943D16104210843306040E057
:1008C00003272D4A3DE004200090012900D100912A
:1008D000002501950198D061706801273843706048
:1008E0002A0103980499FFF757FC6900029A88527D
:1008F00000F03CF904463068C00706D000F036F935
:10090000001B1F498842F6D915E03068800601D5E2
:10091000202030603068C006174A17D4306840077E
:1009200014D470680121884370606D1C0027009802
:100930008542CFD105E0394603270F4A70688843C6
:10094000706000201076384605B0F0BD3068C006F3
:1009500001D4002004E0D06902210143D1611020BC
:100960003168490704D5D1693943D161042108436D
:1009700030603946E2E7C046180200200C200240F1
:1009800050C300000648C168090601D40020704722
:100990000449016004490160C068C0B2C0097047E1
:1009A0000420024023016745AB89EFCDF0B58AB042
:1009B00003900F68002F00D1C3E06348039A82427E
:1009C00001D0052000E00320009000231A461C46B9
:1009D00008910BE03A43F260079A641C0F683846AE
:1009E000E0409B1C121D002800D1AAE001260596BC
:1009F000A6403740F1D00792032002469A40029366
:100A0000D34349680D4605406A1E012A06930491A6
:100A100013D80197039FB8681840089AD268029BC0
:100A20009A400243BA60C806C00FA0407A68B24339
:100A30003E46019F0243726006E0032D039E029B27
:100A400002D10546079A1EE0F06806990840089909
:100A50008A689A400243F260022D079A13D11C2043
:100A600010400F218140E2089200B218156A8D43B0
:100A7000089E3169814029431162079A7068039E7C
:100A80000325049005409D4030680699084028439E
:100A9000306004988003800F08999ED05B490868F5
:100AA000059D284308600868284009900C201040E4
:100AB0000F228240032125468D430999244EA959CE
:100AC0009143AD190922D206039E96420CD0214AC9
:100AD000964206D0204A9642009A1C4E06D1022227
:100AE00004E01A4E059A01E00022184E82400A43A3
:100AF0002A603568089801464068C2030FD53D4317
:100B00003560756882030FD4BD437560B568C20255
:100B10000FD4BD43B560F268800210D55AE7BD43DB
:100B2000356075688203EFD53D437560B568C202D4
:100B3000EFD53D43B560F268800200D54AE7BA437D
:100B400049E70AB0F0BDC046000C0048000401406F
:100B5000080001400004004800080048002A02D0B4
:100B6000182281507047282281507047054800683C
:100B70007047C0461A48007802490A681018086091
:100B80007047C0463802002010B583480168102223
:100B90000A4302600024204600F004F800F022F826
:100BA000204610BD70B504467D20C0000C4E317843
:100BB00001F0CAF801468048006801F0C5F800F06D
:100BC0001FFB0125032C08D8002806D10025E84387
:100BD00021462A4600F028F87460284670BDC046B9
:100BE0003400002082B009480168012211430160ED
:100BF0000168114001910199110742680A4342605E
:100C0000406808400090009802B0704718100240F9
:100C1000002805D41F2108400121814001480160BE
:100C20007047C04600E100E0002805D403220346D7
:100C300093430A4A9A1803E00C220240064BD2184A
:100C40008007C00E8901C9B28140FF23834010682C
:100C5000984308431060704714ED00E000E400E0A2
:100C6000F0B581B000284FD004464B4A13680120EC
:100C700003408B4208D213680126B3430B43136031
:100C8000126832408A4240D1009121688A075A4B4B
:100C900011D54A0707D507221202574B1B68134389
:100CA000554A1360544B1A68F0239A43A3681343C0
:100CB000514A1360504BC9072AD1374908680126A9
:100CC0003040009A904205D90868B043086008682F
:100CD000C0071AD12078400706D5072000021968FE
:100CE0008143E0680843186019680C220A404348B1
:100CF000082A18D18A02120F414B9C5C3E4B9A6A1B
:100D0000C90332D4404837E00126304601B0F0BD77
:100D100061681A1F022908D001290BD112689203B9
:100D20000646F2D50AE0044627E01268920106461C
:100D3000EBD503E0126892070646E6D5186803264D
:100D4000B04308431860FFF711FF0746134D2A4BC5
:100D500018680C210140606880008142ADD0FFF727
:100D600005FFC01BA842F2D9CFE70F210A40254951
:100D7000895C00F0E9FF204B444318680006000F2F
:100D80000749085CC4400C48046000263046FFF761
:100D900009FF304601B0F0BD00200240881300007A
:100DA0003E1F000804480068134909684905490FB7
:100DB000024A515CC84070473C0000204E1F0008AA
:100DC00010B50D490A680C2313400C48082B09D1B3
:100DD00093021B0F0A4CE45C896AD20303D40A48CD
:100DE0004443204610BD0F221140064A515C00F0DA
:100DF000ABFF4443204610BD0410024000127A00AD
:100E0000561F0008661F000800093D00F0B587B0B6
:100E100004460120002C00D1EAE104902078C007AC
:100E2000F44E059426D071680C20014004291AD094
:100E300071680140082902D17068C00313D4616849
:100E400001204704002900D184E1052900D198E15F
:100E5000012900D199E1010432688A43326081049A
:100E60003068884394E13068800303D560680028C7
:100E700000D1BDE0207880071AD570680007800F88
:100E800007D070680C210140082975D17068C00333
:100E900072D430688007059C03D5E068012800D033
:100EA000A6E03068F82188432169C9000143316018
:100EB000059C2078000724D42078400736D4207879
:100EC000C00600D4B4E005984069411D00D1A3E0FC
:100ED000012800D0F4E0706B042101437163706B52
:100EE000012101437163FFF741FE0546706B8007E6
:100EF00000D595E0FFF73AFE411B03200229F5D902
:100F000076E1706AE169002960D0012108437062CE
:100F1000FFF72CFE0546706A8007CDD4FFF726FE4A
:100F2000401B0228F7D9032007B0F0BD0120039031
:100F30000107F0690840029006D1F0690843F061AA
:100F4000F0690840069006980191AB4F3868C005DB
:100F500028D403980402386820433860FFF706FE5F
:100F60000546386820421DD1FFF700FE401B64286B
:100F7000F7D9032007B0F0BD3068059CE16800296F
:100F800039D0012108433060FFF7F0FD0546306895
:100F9000800786D4FFF7EAFD401B0228F7D903201B
:100FA00007B0F0BD05988068944F002800D19CE000
:100FB000052800D1AEE0012800D1AFE0306A0399E6
:100FC00088433062306A04218843AAE001218843C3
:100FD0007062FFF7CBFD0546706A800700D46BE7AF
:100FE000FFF7C4FD401B0228F6D9032007B0F0BD6F
:100FF000049807B0F0BD012188433060FFF7B6FDCB
:1010000005463068800700D452E7FFF7AFFD411B6B
:1010100003200229F5D9EBE0706B0421884370634B
:10102000706BF821884305998969C9000143716390
:101030000598046A002C1ED070680C210140082914
:101040001CD1012C049800D1D2E001200304716866
:101050000B40F26A059D6C6AA34200D0C8E00F23E2
:101060001A40EC6AA24200D0C2E09A041140AA6A77
:10107000914200D0BCE0002007B0F0BD0120020684
:1010800031680492914331604706FFF76FFD0546D2
:10109000022C0BD1049C3068384200D188E0FFF765
:1010A00065FD411B03200229F5D9A1E030683842D3
:1010B000E1D0FFF75BFD411B03200229F6D997E041
:1010C000706B042101437163706B0121884370636D
:1010D000FFF74CFD0546706B8007A9D5FFF746FD6D
:1010E000411B03200229F6D982E0306A0399884324
:1010F0003062306A042188433062FFF737FD0546CD
:10110000306A80071CD5FFF731FD411B0320B9422F
:10111000F6D96DE0306A042101433162306A0399E7
:1011200008433062FFF722FD0546306A800707D486
:10113000FFF71CFD401BB842F7D9032007B0F0BDF4
:1011400002980028059C00D0B9E6F069019988430F
:10115000F061B4E6010432688A4332608004316889
:1011600081433160FFF702FD0546059C3068384237
:1011700000D17FE6FFF7FAFC411B03206429F5D973
:1011800036E0810432680A43326001043068084363
:101190003060FFF7EBFC05463068384200D069E666
:1011A000FFF7E4FC401B6428F6D9032007B0F0BD2C
:1011B000F06A0F218843059AD16A0143F1623D200C
:1011C000000471688143906A0843516A0143716069
:1011D000306820433060FFF7C9FC0446306838426D
:1011E00000D048E7FFF7C2FC011B03200229F5D914
:1011F00007B0F0BD001002400070004088130000EE
:10120000401E010E01D0012070470749074A506077
:10121000074803680B400321890759180160002023
:101220009060072111607047FFFFFF0010E000E0B1
:1012300020ED00E07047704770470000F0B589B0BE
:101240000368DE691A682021089205910A4051421C
:1012500051410127FD022C462F3407963440203C93
:10126000661EB4410C439E6860D002A98CC10690F2
:101270000246583201950F35079F2F42089807D034
:10128000E3490140012334461C40611800D097E037
:101290001023014619404C424C413D463946194005
:1012A0004F424F410698016E01290498014643D1EF
:1012B00039460029014642D0002943D02F46012358
:1012C00099050E4074427441E9020146039A00D523
:1012D00021460029069800D1F0E08021089A1140AB
:1012E0004C424C413906049900D52146002900D1D1
:1012F00082E14025089929404C424C41790600D5AD
:101300000494049900290FD1EFF3108183F310881E
:1013100002681368AB43136081F310880021816673
:101320000599816700F090FA09B0F0BD416E00297F
:10133000FAD0884709B0F0BD00290146BCD121464A
:101340000029BBD1039803628068400600D5BBE04A
:10135000548810885288002A0699E5D0A042E3D02C
:101360000894EFF31084012282F3108809256D019F
:101370000E683768AF43376084F31088EFF310844A
:1013800082F310880D68AE689643AE6084F31088CF
:10139000059CCC6700244C660C66EFF3108482F346
:1013A00010880A6815689D43156084F31088089AB0
:1013B000801A82B208461146FFF73CFF09B0F0BD23
:1013C000190201404E424E41F9070498014600D0EF
:1013D00031460029039D03D12B62916A1943916222
:1013E00066426641B907014600D53146002905D15C
:1013F00002212962916A04260E4396626642664182
:101400007907014600D53146002905D1042129621A
:10141000916A02260E43966202990C436642664127
:101420003907044600D53446002C04D1082129622E
:10143000946A0C4394629906089E0E40744274416B
:1014400001990F42069E0CD020463C4600280BD145
:101450002962916A059801439162916A002907D136
:1014600062E73C460028F3D0916A002900D15BE78F
:1014700017460598214601400298444244410029FC
:10148000049800D0204600283C4608D1716E0029FF
:1014900005D030461C46884723463C463568A16A3D
:1014A00028220A40A9684020014089185CD13046B2
:1014B000FFF7C2FE0020A06209B0F0BD190511625D
:1014C000FFF7B9FE09B0F0BD1746069E316F0868F8
:1014D000426894B2002C00D126E73888844200D3B9
:1014E00022E73C467A803A468969202934D0EFF3D6
:1014F0001081012080F31088474A20323468256823
:101500001540256081F31088EFF3108180F3108877
:10151000326894688443946081F31088EFF31081FB
:1015200080F31088326894684025AC43946081F35E
:1015300010880599F16700213166EFF3108180F37F
:101540001088306802689A43026081F31088306F17
:10155000FFF7ACF83A4638885188401A81B23046D5
:10156000FFF768FE09B0F0BDEFF3108183F3108838
:10157000092252011F4633681C6894431C6081F3A2
:101580001088EFF3108187F31088326893683D4626
:10159000BB43936081F31088316E01290AD1EFF3C8
:1015A000108185F31088326813681024A3431360F8
:1015B00081F310880599F167002131667166316801
:1015C000896849061FD5EFF3108185F310883268CA
:1015D00093688343936081F31088306F002812D0A2
:1015E0000C494163FFF781F8002800D19CE6306F79
:1015F000416B884709B0F0BD816E002900D193E6A8
:10160000884709B0F0BD3046FFF716FE09B0F0BDBF
:10161000200100042F190008DFFEFFFFF0B583B0A2
:10162000002841D0044607467437806F002804D153
:1016300000203870204600F057F82420A06720686A
:1016400001680125A9430160204600F07BF90128CB
:1016500027D0606A002802D0204600F0FFF8092059
:10166000C00221684A6882434A6088682A229043FF
:10167000886008680126304308600025FD60FFF798
:1016800075FA034620680168090713D515480090CC
:10169000710500222046029300F0E8F9002807D0E7
:1016A0000325284603B0F0BD0125284603B0F0BD50
:1016B0002068029B006840070CD50A480090B105DD
:1016C0000022204600F0D2F9002803D00325284646
:1016D00003B0F0BD2020A067E0673D702566284676
:1016E00003B0F0BDFFFFFF01B0B586B00068D6497A
:1016F000884201D006B0B0BD14488168012205922D
:101700005204114381608168114000910099016881
:1017100011430160006810400090032004900024F1
:101720000394022002900C20019000980920C0062A
:1017300001A9FFF73BF91C25284621462246FFF761
:1017400073FA2846FFF764FA06B0B0BD14100240E1
:10175000F0B587B017460646826F0220202A19D1BD
:101760000125002913D0002F11D001252C03B268C8
:10177000A24204D1CA0702D03269002A07D00695D6
:101780000394344674342278012A054606D128464B
:1017900007B0F0BD0546284607B0F0BD049105939B
:1017A0002046344650340025C560029006990170E9
:1017B0002120B067FFF7DAF9069067802780B068CC
:1017C0000399884202D13069002802D0049F049511
:1017D00000E000270599029805700BE0049A118833
:1017E000184B19400185921C04922F460599608878
:1017F000401E60806088002810D000918021002564
:1018000030462A46069B00F031F9002810D1306896
:10181000002FE3D0397801857F1CE7E70091402154
:10182000002530462A46069B00F020F9002803D008
:101830000325284607B0F0BD2020B067284607B032
:10184000F0BDC046FF0100007047FEE7FEE77047AD
:10185000704780B5FFF78EF980BD7047B0B5416A1B
:10186000CA070CD18A0714D44A071CD40A0724D407
:10187000CA062CD48A0634D44A063CD44CE0012251
:10188000520403685C689443826A22435A608A0760
:10189000EAD50122120403685C689443C26A2243B9
:1018A0005A604A07E2D50122920403685C689443B7
:1018B000026B22435A600A07DAD50122D203036879
:1018C0005C689443426B22435A60CA06D2D5012217
:1018D000120303689C689443826B22439A608A06D1
:1018E000CAD50122520303689C689443C26B224309
:1018F0009A604A0610D501221305026854689C4379
:10190000056C2C4354609D4206D103235B0554684B
:101910009C43436C23435360090607D50121C90446
:10192000026853688B43806C18435060B0BD80B52B
:10193000406A0146523100220A8152214252FFF789
:101940007BFC80BDB0B50446006801683D4A0A4092
:10195000A16823690B4365691D431543E1690D4384
:1019600005600322120343689343E2681A4342600E
:10197000A269236A13430B221202856895431D4313
:101980008560314A904209D0304A904208D13048AF
:1019900000688007000F2FA2135802E0002300E028
:1019A00010230125EA032F4891420FD1082B43D879
:1019B0007B441B795B009F44043F203F193F3F3F1E
:1019C0001F00FFF7EFF9002817D113E0082B33D8D9
:1019D0007B441B795B009F44042F242F1D2F2F2F46
:1019E0002300FFF7DFF900281BD117E0FFF7E8F924
:1019F000002802D100251FE01046400061684A0817
:101A0000101800F0A1F91849014015D00007400F47
:101A100008430EE0FFF7D4F9002802D100250BE0BF
:101A2000104661684A08101800F08EF980B210283C
:101A300002D32168C860002500206066A0662846A1
:101A4000B0BDC046F369FFFF0044004000380140CC
:101A500030100240000000000400000008000000F8
:101A60000200000000127A00F0FF0000F0B587B01D
:101A700016460F4605460468E1693940C91B4A42CB
:101A80004A410020B24224D1069304952A4674327A
:101A90000C9D002D1FD0691C43D1E1693940C91B41
:101AA0004A424A41B24214D1E1693940C91B4A4213
:101AB0004A41B2420DD1E1693940C91B4A424A410B
:101AC000B24206D1E1693940C91B4A424A41B24299
:101AD000E3D007B0F0BD0392FFF748F8049CEFF3A2
:101AE0001081012080F310880D22520123681D68A7
:101AF00095431D6081F31088EFF3108180F3108807
:101B0000226893688343936081F310882020A06744
:101B10007C3403990020087020202060032007B047
:101B2000F0BD0392029001200190C0020590049C38
:101B300006E0C0693840C01B41424141B1422DD14D
:101B4000FFF714F80699401AA842C8D8206801681F
:101B50004907EED5C169059A1142EAD0059901629B
:101B6000EFF31080019D85F310880D214901226853
:101B700013688B43136080F31088EFF3108085F3B4
:101B8000108821688A68AA438A6080F31088202020
:101B9000A067E06703990C460C34BBE7029807B0D6
:101BA000F0BD000080B56048FFF748FB80BDC0462F
:101BB00090B0FEF7E9FF00240B940A94099408946E
:101BC000079406940F94012001050E9101040D91D4
:101BD00002250C950590049004A8FFF717F900283A
:101BE00003D0EFF3108072B6FEE7039402940195E0
:101BF00007200090684601252946FFF731F80028A4
:101C000003D0EFF3108072B6FEE70894A9054448AC
:101C100002680A43026002680A400092009969045F
:101C200002680A43026002680A4000920099E904CF
:101C300002680A4302600068084000900098032090
:101C40000602384F384631462246FEF787FF079492
:101C500006940595049604A93846FEF7A7FE324877
:101C60000C214B22D201314B036042608460C4607E
:101C7000046141618461C46104624462FFF7CEFC87
:101C8000002803D0EFF3108072B6FEE7284E3146ED
:101C90001031284D09222846FEF7C2FB264C0A22A5
:101CA00028462146FEF782FBF1681F48042264257E
:101CB0002B46FFF74DFD2846FEF738FD35682846D0
:101CC000FEF77CFA81078008002900D0401C86B20C
:101CD0001A4F384629463246FEF7A2FB38462146BF
:101CE0003246FEF763FB164D291D2046FEF7EDFA3E
:101CF0000F4E7068FEF7ABFA0146124C2046FEF715
:101D0000CBFC2046FEF788FB2860B1684E342046A5
:101D1000FEF7C2FC2046FEF77FFB2860FEE7C046C8
:101D200014100240000800489001002000440040C8
:101D30000000002010440008140100201048000892
:101D4000A000002000FC000843088B421AD30022A8
:101D500003098B4279D3030A8B425ED3030B8B4278
:101D600042D3030C8B4227D30902FF2212BA030C81
:101D70008B4202D31212090203D0030B8B4233D3DE
:101D80001AE0D3E0411A8041401C704703460B43E0
:101D900071D443088B42F5D3002203098B4254D3FC
:101DA000030A8B4239D3030B8B421DD3030C8B42A6
:101DB00002D394466EE0090AC30B8B4201D3CB03D6
:101DC000C01A5241830B8B4201D38B03C01A52417C
:101DD000430B8B4201D34B03C01A5241030B8B427E
:101DE00001D30B03C01A5241C30A8B4201D3CB0269
:101DF000C01A5241830A8B4201D38B02C01A52414E
:101E0000430A8B4201D34B02C01A5241030A8B4250
:101E100001D30B02C01A5241CDD2C3098B4201D368
:101E2000CB01C01A524183098B4201D38B01C01AE6
:101E3000524143098B4201D34B01C01A524103095D
:101E40008B4201D30B01C01A5241C3088B4201D30C
:101E5000CB00C01A524183088B4201D38B00C01AB9
:101E6000524143088B4201D34B00C01A5241411AE0
:101E7000524110007047CA0F00D04942031000D3EE
:101E80004042534000229C4603098B422DD3030A53
:101E90008B4212D38901FC2212BA030A8B420CD363
:101EA000890192118B4208D3890192118B4204D38C
:101EB000890137D0921100E08909C3098B4201D30F
:101EC000CB01C01A524183098B4201D38B01C01A46
:101ED000524143098B4201D34B01C01A52410309BD
:101EE0008B4201D30B01C01A5241C3088B4201D36C
:101EF000CB00C01A524183088B4201D38B00C01A19
:101F00005241D9D243088B4201D34B00C01A5241EF
:101F1000411A00D201465241104663465B1000D37D
:101F20004042704763465B1000D3404201B5002138
:101F3000004201D0C9430846C046C04602BD000069
:101F40000000000000000102030406070809000069
:101F500000000102030402030405060708090A0B36
:101F60000C0D0E0F10100102030405060708090AE4
:101F70000B0C0D0E0F107465737420466C61736842
:101F80002C2048656C6C6F00A81F00080000002022
:101F90004000000000010008E81F00084000002089
:101FA000000800001C010008761F00087B000000EC
:101FB00079E9F64210440008010000000200000028
:101FC00003000000040000000500000006000000FF
:101FD00007000000080000000900000001000000E8
:081FE0000400000000127A0069
:04000005080000BD32
:00000001FF
