:020000040800F2
:1000000078070020910100085B20000859200008B3
:1000100000000000000000000000000000000000E0
:100020000000000000000000000000005F20000849
:1000300000000000000000005D20000861200008B2
:10004000A3010008A3010008A3010008A301000800
:10005000A3010008A3010008A3010008A3010008F0
:10006000A3010008A3010008A3010008A3010008E0
:10007000A3010008A3010008A3010008A3010008D0
:10008000A3010008A301000800000000A30100086C
:10009000A3010008A3010008A3010008A3010008B0
:1000A000A3010008A3010008A3010008A3010008A0
:1000B000A301000800000000A301000800F002F8FE
:1000C00000F057F80CA030C8083824182D18671E07
:1000D000A246AB4654465D46AC4201D100F049F819
:1000E0007E460F3EB6460FCC0126334200D0FB1AA7
:1000F0003343A246AB461847DC250000FC25000030
:10010000103A02D378C878C1FAD8520701D330C860
:1001100030C101D504680C60704700000023002442
:1001200000250026103A01D378C1FBD8520700D32E
:1001300030C100D50B60704710B5732902D100F0B3
:10014000B7F910BD002010BD1FB50098019900F04F
:1001500086FE01F0E9FA04000020002102F086FA90
:10016000401C606000F0DEF91FBD10B500F046FADB
:1001700010BD00F038FE1146FFF7E6FF01F076FFF4
:1001800001F0D6F903B4FFF7F0FF03BC01F0F8F972
:100190000748804707480047FEE7FEE7FEE7FEE71F
:1001A000FEE7FEE704480549054A064B7047000094
:1001B00069200008BD0000087801002078070020B1
:1001C00078030020780300200FB4054910B503AA76
:1001D000029800F071F910BC08BC04B01847000088
:1001E0006C000020F8B50E46044600202062204630
:1001F000E1688847002829D0252802D06268A168D4
:1002000020E0E16820460027884705001ED02846E8
:100210004138192802D80127FF02203532462046EE
:1002200027602946FFF788FF002808D0012804D05E
:10023000F61DF608F6000836D9E7361DD7E76268DE
:100240002846A1689047206A401CCFE7206AF8BD85
:1002500070B50C460546012A05D02878800600D5E1
:10026000EA69002302E0012305E05B1C934202D20D
:10027000E05C0028F9D1A869E618C01AA861286ACC
:10028000C01828622846C046C04604E06A68207844
:10029000A968641C9047B442F8D32846C046C046BB
:1002A00070BD00000FB400B589B00BA86A4600907D
:1002B00003480A9900F024F909B008BC04B01847B3
:1002C00018000020FFB51D460027FF4383B05C687F
:1002D000002001909E68A96904987F1C88470090BF
:1002E000296A88470028F6D10098401C0CD00320CA
:1002F00040028443002E19DD600614D500982B2897
:1003000009D02D280FD103E00020C04307B0F0BD75
:10031000012080020443A96904987F1C8847761E47
:10032000002E009002DD0098302803D005980028A8
:1003300025D035E00120A96940020443761E0498C7
:100340007F1C8847002E009003DD782805D05828B0
:1003500003D00598002810D022E00598002801D08D
:1003600010281DD10120A96940028443761E0498FB
:100370007F1C88470090102002E0082000E00A203F
:1003800005900DE00121059A49020C430199761E62
:10039000514308180190A96904987F1C8847009070
:1003A000002E05DD0599009800F09AF80028E9DA9A
:1003B000E96904988847A00502D40120C043A5E755
:1003C000E00722D1600611D56005019800D54042B2
:1003D00029680A1D2A600968220501D5087014E001
:1003E000220701D5088010E008600EE02868011D92
:1003F00029600068210502D50199017005E02107F7
:10040000019901D5018000E0016038467EE7F7B52B
:100410000D4604460646002701290ED0012D11DBAA
:10042000029802F004F9411C0AD0C0B22070641C8A
:100430000A2802D06D1E012DF2DC30462770FEBD69
:10044000B44201D10020FEBD029800F067F80028F8
:10045000F3D00026F1E7000010B5044603E002F0F7
:10046000F5F8401C08D020780549641C0028F6D116
:100470000A2002F0EBF810BD0020C04310BD0000C0
:100480006C00002070477047704710B54369002B1F
:1004900002D0C046C04601E0FFF7DAFE012010BDE1
:1004A0001278014624310A7000224A700122ECE7DA
:1004B00011680022D243E8E7084B70B50D467B4433
:1004C00000F0F9F80446284600F028F8002802D089
:1004D0000020C04370BD204670BD00008B2100008D
:1004E0003A2800D23038202302469A43412A01D3C9
:1004F00010463738884201D30020C04370470000BF
:10050000044B10B57B449361034B7B44D36100F0F3
:10051000EBF810BD2721000001020000C068802117
:100520000840704710B54348542100F027FC42486A
:10053000542100F023FC4148542100F01FFC4048A6
:100540003C493D4B404A01603E4803603B481060D7
:100550005A1C0A65411C1965012101653C48354A50
:100560003AA1784400F04AFB002804D13848784486
:100570000C3800F0DFFB38482F4A36A1784400F0F1
:100580003DFB002804D1344878440C3800F0D2FBFD
:1005900032482A4A2FA1784400F030FB002804D1C9
:1005A0002E4878440C3800F0C5FB40232148DC007D
:1005B0000021224600F0FCFA002804D024487844A8
:1005C0005C3800F0B7FB1C4822464023002100F0B5
:1005D000EFFA002804D0204878445C3800F0AAFBE9
:1005E000164822461023002100F0E2FA002804D029
:1005F0001A4878445C3800F09DFB10BD0F4870B578
:10060000006D44080B48640000F070FB0A4800F0DD
:100610006DFB0A4800F06AFB09E0206D45082046A2
:100620006D0000F063FB204600F01AF82C46002C09
:10063000F3D170BD180000206C000020C000002025
:1006400000000020040000200800002072000000CC
:1006500032210000770000001C210000062100006C
:1006600070B50446051F00F0DDFB0068002C1AD0B1
:10067000446801E020466468002C01D0AC42F9D304
:1006800001680A18AA4204D12A680546891801603F
:1006900000E0456028684119A14205D161686960A0
:1006A00021684018286070BD6C6070BD01694A1CEB
:1006B00002610878704700B58FB002910021059162
:1006C0000549019379440391114604906846FFF768
:1006D00089FD0FB000BD0000E5FFFFFF0268511863
:1006E000137801601846704710B5D1600549794408
:1006F000516105497944116200211161114600F0F0
:1007000015FC10BDEBFFFFFF23080000704710B57C
:10071000C168104C8A020FD5036B42689A420BD114
:1007200025210A5C0146104600F0C0FE401C01D1A4
:10073000204610BD002010BD0906890FF8D10269BE
:1007400041689142F4D90268521C491E026041601E
:10075000F0E70000FFFFFFFF70B50D4601461446AD
:10076000D36850692A4600F023FB002808DA411CB0
:1007700008D0E16801224000920311434008E16083
:10078000281A70BD204600F00BFE0020C04370BD4B
:10079000C168402211439201914300220260C1606E
:1007A0004905890F01D08260704702694168891A42
:1007B000C269891A81607047F3B50446012183B08C
:1007C000C06889050843E0604005800F08D02046D6
:1007D00000F092FE2068002802DD401E206030E01C
:1007E000E068734B010311D599108843E0608106DE
:1007F00006D4E26A61688A4200D80A46511A21602A
:100800001843E0602034607905B0F0BD9843E060A3
:10081000800602D5204600F024FE6649E0680140CB
:10082000012903D0204600F0BBFDB8E02168002676
:1008300000290BDAC94321600121A660090308439E
:10084000E0606068411C61600078DDE75A49084259
:100850000DD0052126600903884340210843E0604C
:1008600021696068401AE169401AA06097E0216937
:10087000002915D1C00313D4E06900F01DFB002846
:10088000206118D0E0680121C9020843E0608105B9
:10089000890F03D1FF2101310843E06020696060C6
:1008A00060690090E068C1061BD5C0030FD52046E3
:1008B00000F0B1FD15E02046032124302061012025
:1008C000E061E0680902884301218902E4E72169C7
:1008D0006068401AA1694118009800F076FA002873
:1008E000A0DBE068C0032BD56168E06A884200D8CD
:1008F00008462169451AE069471B1CD0A069019090
:10090000204600F088FD01984119A061009800F090
:100910005CFA002886DBE068012149040843E060B6
:100920000498002802D0A0694019A061E1692069FB
:10093000C91B45180DE0204600F06DFDE769F5E79D
:1009400025696168A069E769491BE562401865602F
:10095000A061E0681021A660884309020843E060B6
:100960000498002805D02069E06260600120C0433F
:100970004AE7224639462846FFF7EEFE411C0ED0D4
:1009800029180028E1620DD0401E2060681C6060BC
:10099000E068012149040843E060287834E700203A
:1009A000C04331E765602046FFF7F2FEF7E700003D
:1009B000000020008120000040400000F7B50546FF
:1009C0000C46C8680521C9048843012189050843EC
:1009D000E060800602D5204600F043FD7249E068E1
:1009E0000140022903D0204600F0DAFCBEE00521D8
:1009F000012249030140D20391420FD1C00306D521
:100A00006168E06A884200D80846606006E02069B4
:100A1000E0626060606900F0E0F9A061A168002216
:100A2000EEB200290EDAE06883050BD4C943A16059
:100A30000921226049030843E0606068411C61604D
:100A40000670AEE0E068012149030843E060002041
:100A500020602069002831D1606900F0B0F90125DB
:100A600027462437ED02002816D0A0898005800F84
:100A700008D0E06900F020FA0028206102D0E06888
:100A8000284318E001202761E061E06803210902A2
:100A90008843012189020DE0E06900F00DFA002889
:100AA0002061EFD0E0682843E0608105890F03D121
:100AB000FF2101310843E06020696060E2683B4F3C
:100AC0002569D00520D56168E06A884200D80846CB
:100AD000411B05D02246284600F06CFC002845D179
:100AE0000298002804D0E56200206560A06055E00F
:100AF000681CE0626060E069401EA060E068384306
:100B0000E06030462E70FEBD0298002801D03A40C9
:100B100009E06068411C61600670E06838430A2E95
:100B2000E06006D00022E16A6068814203D90B468A
:100B300002E00122F7E70346A7895B1B7F0504D487
:100B4000E7699F4201DD002A1ED0814200D801469C
:100B50000F1A0020E5626560002BA06009DD2246C7
:100B60001946284600F026FC002802D00020C04389
:100B7000FEBD002F08D0A069E5626560C01BA061C2
:100B8000E06810210843E0600298002809D06168FD
:100B9000A069E562491B40186560A0610120C0435F
:100BA000FEBD3046FEBD00008210000000000100C6
:100BB00070B5C468A50713D0650211D4D51FF93DDF
:100BC0000AD0FF3D6D1E07D0FF3DFF3D022D07D12E
:100BD00001462431012305E0074E5D1EB54201D3D5
:100BE000012070BD0161C36141600F2109028C4386
:100BF0001443C460002070BDFFFFFF00F7B5164628
:100C00000C460098002843D0104600F06FF820787A
:100C1000611C61280AD0722802D0772839D102E0FD
:100C20000125002404E00225042401E02D4D0824C0
:100C30000222032301270878491C2B2806D06228AA
:100C400007D02039C87F742807D008E01D4314431B
:100C5000F1E7042005433C43EDE7102004430098EE
:100C6000214600F08DF8411C13D0002131617160E4
:100C70000121F5604902F1617061200704D5304619
:100C80000222002100F012FB306D384330653046FF
:100C9000FEBD0020FEBDF8B50D460646124C206D87
:100CA000C10704D0410804D044086400F7E7224695
:100CB00010E0542000F000F9070010D07908206DF2
:100CC000490001221143084354212065384600F0B1
:100CD00055F83A4629463046FFF790FFF8BD002008
:100CE000F8BD00000280000018000020F8B504469E
:100CF0000026476900690090E568A80717D02046DC
:100D000000F089FB384600F045F8002800DA761E2E
:100D1000280502D50098FFF7A3FC4C21204600F0DF
:100D20002DF8206D4008400020653046F8BD0020B9
:100D3000C043F8BD10B500F009FC00F001FC10BD87
:100D400001E004C0091F0429FBD28B0701D50280F2
:100D5000801CC90700D00270704700290BD0C30760
:100D600002D00270401C491E022904D3830702D519
:100D70000280801C891EE3E70022EEE70022DFE705
:100D80000EB50191009000F0A7FC02906946012089
:100D9000ABBE0EBD08B5694600900220ABBE08BDD3
:100DA0001FB56B4607C369460520ABBE04B010BD36
:100DB0001FB56C460FC469460620ABBEF6E708B502
:100DC000694600900920ABBE08BD1CB500900A2002
:100DD00001916946ABBE1CBD704708B569460090DD
:100DE0000C20ABBE08BD754600F0D0FBAE4605003A
:100DF00069465346C008C000854618B020B5FFF7C5
:100E0000D1F960BCB64600260027C0C5C0C5C0C524
:100E1000C0C5C0C5C0C5C0C5C0C5403D4908490022
:100E20008D467047004870471C010020704770478E
:100E30007047704738B504460A4600206946C046E8
:100E4000C046002805D002462046009900F0B3FBBA
:100E5000012038BD10B5012000F037FC10BDF8B5F9
:100E6000C046C046054600200C461020C046064637
:100E7000A819A0420DD9324669460020C046C04696
:100E8000070001D100F021FC0098A04200D00546E7
:100E9000C419FFF7C7FFF61D07460560F008C0003C
:100EA0004619284600F080FBB44204D03146386829
:100EB000A21B00F080FBF8BD70B50646FFF7B2FF3D
:100EC000056830460B30C408E400B44201D8002065
:100ED00070BD68682A46002818D00168A14211D365
:100EE0000B46214608318B4208D3436801194B60F9
:100EF00003681B1B0B605160046001E04168516096
:100F0000001D70BD024640680028E6D121462846F3
:100F1000FFF790FF0028DCD170BD10B5044600F04B
:100F20003BFB0068005DC007C00F10BDF3B50C4669
:100F30008FB000200C90012000260E9008460C3047
:100F400003906269039801219047051E2ED0252D3C
:100F50002DD0216A8847002818D0626903980121A2
:100F60009047216A88470028F7D16269411E03989B
:100F7000904700E0761CA1690F988847216A88474E
:100F80000028F7D1E1690F988847DAE7A1690F983F
:100F90008847A842074601D1761CD2E7E1690F983D
:100FA00088477F1C02D10C98002877D06BE16269DA
:100FB000039800273D46394690472A280CD162699C
:100FC000039801219047012506E00A214F433F186D
:100FD000303FEBD41020054362690398012190470C
:100FE000014630390A2903D2AC498F42DEDCECE7F6
:100FF000E90600D4AA4F6C280AD04C2810D06828E3
:1010000024D06A282ED074280CD07A280AD00DE07B
:1010100062690398012190476C2823D004211CE0C9
:10102000202005436269039801219047A760652845
:1010300065604FD026DC582839D01ADC452849D0C5
:1010400012DC252834D04128B0D143E062690398EE
:1010500001219047682802D008210D43E6E70120CE
:10106000C002DEE70220DCE7462833D047289DD1C6
:1010700030E05B2870D061282CD063286CD06428C5
:1010800094D161E06F284FD009DC662822D0672810
:1010900020D0692826D06E2817D12EE0EFE07028E6
:1010A0004DD073286FD075284ED078280DD154E0DC
:1010B000A1690F9888472528054600D16CE7E169AA
:1010C0000F9888476D1C00D16DE7DCE00A224CE0E8
:1010D0000A2252E0012023466A460F99C043C046C7
:1010E000C046C5E040212846234608436060A80763
:1010F00001D5002239E000223FE0E80700D020E7D8
:101100002068011D21600068290501D5067018E7D7
:10111000290701D5068014E7A90703D5F117066052
:1011200041600EE706600CE740212846234608434D
:101130006060A80701D5082217E008221DE0594980
:1011400028460840606016E04021284623460843B0
:101150006060A807BCD5B9E715E0402128460843E0
:101160006060A80707D52346102201200F99C043CD
:10117000C046C0467CE01022234601200F99C043A0
:10118000FFF7A0F874E0002163280B46019100915D
:1011900002910D9102D05B2807D03BE0E80601D414
:1011A0000120A0600120009034E0E06801210D9052
:1011B0006269039890475E2807D101200190E0689A
:1011C00001210D906269039890472169002906D199
:1011D0000B4604AA8F00491C0829D351FADB0028CA
:1011E00051D02169002926D00298401C02906269E2
:1011F0000398012190475D28F1D10198002808D07B
:10120000002004AB8100401C5A58D24308285A5091
:10121000F8DB04AB2069002820791CD04007029A33
:1012200000980D9B0092224602901F480F991DD5F1
:10123000C046C0461CE0C117C90E09184A11490929
:10124000930004AA9A184901411A136801208840A2
:1012500003431360CBE74007224613480F9902D59A
:10126000C046C04604E0C046C04601E0C046C04695
:1012700000280ADA401C06D10E98002803D000206E
:10128000C04311B0F0BD0C98FBE7E90702D10C99FF
:10129000491C0C91361800200E9052E6CCCCCC0C98
:1012A000FFFFFF7FF1F7FFFFFEFFFFFFF8B50446EA
:1012B00016460D464769007B800730D03846FFF759
:1012C0007EFD00282BD132461026002A25D0012A87
:1012D00002D0022A23D104E0204600F0BBF94519D0
:1012E0001BE03846FFF779FDE16831430028E160F3
:1012F00004DA204600F054F80120F8BDC9030BD5EC
:101300006268E16A914200D81146A269891822698F
:10131000891A814200DD08462D18002D01DA0220CD
:10132000F8BDE16A6068E268814206D29103E0623A
:1013300003D5012149048A433243A669AE4211DC38
:10134000E16A814201D90B4600E003469F192369F7
:10135000FF1AAF4206DD814201D90F4600E0074681
:101360009F4206D1202002430020A060A562206099
:101370000DE0AD1BE669AE1B8142A66000D90846B0
:10138000C01A281A20605819606020208243034840
:1013900002400020E26040342072F8BDBFCFD7FF8A
:1013A000C1688022114392039143C1600021816092
:1013B00001607047F7B515460C4682B05069009041
:1013C0003748D768074209D0A9690098FFF7FDFCA4
:1013D000002815DB3248C0430740EF60314EB4426D
:1013E00000D826463B46324602990098FFF7D8FCC3
:1013F0004200A9695208B21A89180028A96106D0CA
:101400002846FFF7CDFF0020C04305B0F0BDA41B68
:10141000E4D10020F9E770B504460569C06A616847
:10142000884200D80846E1680522D2049143E16071
:10143000C90314D5A84209D02246411B2846FFF70C
:10144000B9FF002802D00020C04370BDE562002033
:101450006560A060E068012109048843E060002025
:1014600070BD10B50446C06820218843E060A16AC1
:10147000A06988420ED02046FFF7CDFFE068032127
:101480000903884310210843E060A06AA061206935
:10149000E06260600449E0680840E06010BD000060
:1014A00010000200FFFFFF7FBFBFFFFFCA68431CA1
:1014B0000FD00E4B1A420CD1D3070AD02523585413
:1014C0004B680B6300238B600B6053019B0F03D0B1
:1014D00005E00020C043704701235B061A43044B1C
:1014E0001A40044B1A43CA6070470000802008006D
:1014F000BFFFDFFF0010480070B505460A4C0B4ED9
:101500000EE0206DC00708D0AC4206D03146E0683E
:10151000814302D1204600F069F8206D4408640040
:10152000002CEED170BD0000180000200202000067
:1015300010B50446C046C0462046FEF723FE10BD47
:1015400010B5002801D000F01BF810BD10B5014601
:1015500002A000F0A0F8012010BD0000534947523E
:10156000545245443A2052656469726563743A2066
:1015700063616E2774206F70656E3A200000000072
:1015800001491820ABBEFEE7260002000048704764
:10159000140100207047000010B500F0C5F8001DD0
:1015A00010BD00BFC91000000021016041608060D3
:1015B00070471020704710B50346406801E00346AD
:1015C0004068002801D08842F9D31868C3188B42BC
:1015D00006D0CB1CD808C000001D411A521A014683
:1015E000081D0A60FFF73CF810BD000070B5044606
:1015F000C068810713D0800601D5A56A04E0A169FF
:10160000606840182169451A2046FFF704FF002250
:10161000064629462046FFF749FE304670BD0020A9
:1016200070BD70B5002802D0FFF7E0FF70BD002547
:10163000074C6E1E08E02046FFF7D8FF002800D0B8
:101640003546206D44086400002CF4D1284670BD56
:101650001800002010B50146C268900703D090061C
:1016600007D5886A0AE000F063F801210160881E4E
:1016700010BD8B694868C0180B69C01A40310B7ADD
:10168000002B02D0497A401A10BD1103FCD5002866
:10169000FADD401E10BD70B505460C460A2000E07C
:1016A0006D1C00F03BF8002D06D028780028F7D1FB
:1016B00002E0641C00F032F8002C02D020780028F0
:1016C000F7D10A2000F02AF870BD10B500F034F808
:1016D000FFF736FF10BD000030B5441C03E0017871
:1016E000401C00290DD08107F9D10B4BDD0104C846
:1016F000D11A91432940FAD0001B0A0603D0C01E1C
:1017000030BD001B30BD0A0401D0801E30BD09026F
:10171000FCD0401E30BD00000101010108B5694642
:1017200008700320ABBE08BD00487047340100209C
:10173000004870471401002010B5012805D0002191
:1017400003A0FFF7A8FF012010BD09A1F8E70000E2
:1017500053494752544D454D3A204F7574206F669A
:101760002068656170206D656D6F72790000000002
:101770003A2048656170206D656D6F727920636FE6
:10178000727275707465640082078B079A423FD14C
:1017900070B5920F0AD0032402780B78401C491CC4
:1017A000002A33D09A4231D12042F5D1214EF401A2
:1017B00004C808C9951B9543254018D19A420FD1FA
:1017C00004C808C9951B9543254010D19A4207D1FA
:1017D00004C808C9951B9543254008D19A42E7D013
:1017E00012BA1BBA01209A4200D2404270BD12BA0E
:1017F0001BBA2DBA18241000E0401900E140401A2D
:1018000005D12E00E64002D1083CF4D1D01A70BDBB
:1018100002780B78401C491C002A09D09A4207D153
:1018200002780B78401C491C002A01D09A42EFD064
:10183000D01A704701010101F0B58AB003900F681A
:10184000002F00D1C3E06348039A824201D00520F3
:1018500000E00320009000231A461C4608910BE08C
:101860003A43F260079A641C0F683846E0409B1CBC
:10187000121D002800D1AAE001260596A640374097
:10188000F1D00792032002469A400293D34349685D
:101890000D4605406A1E012A0693049113D801974C
:1018A000039FB8681840089AD268029B9A40024386
:1018B000BA60C806C00FA0407A68B2433E46019F96
:1018C0000243726006E0032D039E029B02D105468F
:1018D000079A1EE0F0680699084008998A689A40BD
:1018E0000243F260022D079A13D11C2010400F21F1
:1018F0008140E2089200B218156A8D43089E316952
:10190000814029431162079A7068039E0325049061
:1019100005409D403068069908402843306004988F
:101920008003800F08999ED05B490868059D284375
:1019300008600868284009900C2010400F2282405F
:10194000032125468D430999244EA9599143AD1988
:101950000922D206039E96420CD0214A964206D016
:10196000204A9642009A1C4E06D1022204E01A4EEA
:10197000059A01E00022184E82400A432A60356829
:10198000089801464068C2030FD53D43356075682D
:1019900082030FD4BD437560B568C2020FD4BD4346
:1019A000B560F268800210D55AE7BD4335607568AE
:1019B0008203EFD53D437560B568C202EFD53D4364
:1019C000B560F268800200D54AE7BA4349E70AB039
:1019D000F0BDC046000C0048000401400800014072
:1019E0000004004800080048002A02D01822815054
:1019F0007047282281507047054800687047C046EC
:101A00001A48007802490A68101808607047C046F2
:101A10007401002080B57D48016810220A430260ED
:101A2000032000F005F800F023F8002080BDC04638
:101A300070B504467D20C0000C4E317800F0FCFCEF
:101A400001467A48006800F0F7FC00F0EBFA012547
:101A5000032C08D8002806D10025E84321462A4651
:101A600000F01CF87460284670BDC0460C000020D1
:101A700082B00948016801221143016001681140E8
:101A800001910199110742680A4342604068084089
:101A90000090009802B0704718100240002805D44A
:101AA0000322034693430A4A9A1803E00C22024099
:101AB000064BD2188007C00E8901C9B28140FF23AE
:101AC00083401068984308431060704714ED00E0AD
:101AD00000E400E0F0B581B000284FD004464B4A46
:101AE0001368012003408B4208D213680126B343D8
:101AF0000B431360126832408A4240D10091216842
:101B00008A07434B11D54A0707D507221202404BDB
:101B10001B6813433E4A13603D4B1A68F0239A43F7
:101B2000A36813433A4A1360394BC9072AD137498E
:101B3000086801263040009A904205D90868B043F1
:101B400008600868C0071AD12078400706D507202A
:101B5000000219688143E0680843186019680C2284
:101B60000A402D48082A18D18A02120F2B4B9C5C80
:101B7000274B9A6AC90332D42A4837E001263046F7
:101B800001B0F0BD61681A1F022908D001290BD1EC
:101B9000126892030646F2D50AE0044627E012686E
:101BA00092010646EBD503E0126892070646E6D599
:101BB00018680326B04308431860FFF71DFF074667
:101BC000144D134B18680C2101406068800081425D
:101BD000ADD0FFF711FFC01BA842F2D9CFE70F210C
:101BE0000A400F49895C00F027FC094B4443186800
:101BF0000006000F0C49085CC4400C480460032038
:101C0000FFF716FF0026304601B0F0BD002002406D
:101C1000041002408813000000127A00B426000865
:101C2000C426000800093D00A42600081400002076
:101C3000F0B587B004460120002C00D1EAE1049001
:101C40002078C007F44E059426D071680C2001401E
:101C500004291AD071680140082902D17068C003B4
:101C600013D4616801204704002900D184E10529CB
:101C700000D198E1012900D199E1010432688A4339
:101C8000326081043068884394E13068800303D572
:101C90006068002800D1BDE0207880071AD5706800
:101CA0000007800F07D070680C210140082975D10A
:101CB0007068C00372D430688007059C03D5E06863
:101CC000012800D0A6E03068F82188432169C900C6
:101CD00001433160059C2078000724D42078400718
:101CE00036D42078C00600D4B4E005984069411D80
:101CF00000D1A3E0012800D0F4E0706B042101437F
:101D00007163706B012101437163FFF775FE054636
:101D1000706B800700D595E0FFF76EFE411B032036
:101D20000229F5D976E1706AE169002960D00121C4
:101D300008437062FFF760FE0546706A8007CDD4E5
:101D4000FFF75AFE401B0228F7D9032007B0F0BD69
:101D5000012003900107F0690840029006D1F06964
:101D60000843F061F0690840069006980191AB4F76
:101D70003868C00528D403980402386820433860C6
:101D8000FFF73AFE0546386820421DD1FFF734FEC2
:101D9000401B6428F7D9032007B0F0BD3068059CCC
:101DA000E168002939D0012108433060FFF724FEA3
:101DB00005463068800786D4FFF71EFE401B0228C8
:101DC000F7D9032007B0F0BD05988068944F00282C
:101DD00000D19CE0052800D1AEE0012800D1AFE0A1
:101DE000306A039988433062306A04218843AAE04C
:101DF000012188437062FFF7FFFD0546706A800786
:101E000000D46BE7FFF7F8FD401B0228F6D903204A
:101E100007B0F0BD049807B0F0BD012188433060E1
:101E2000FFF7EAFD05463068800700D452E7FFF768
:101E3000E3FD411B03200229F5D9EBE0706B04217F
:101E400088437063706BF821884305998969C900DC
:101E5000014371630598046A002C1ED070680C2140
:101E6000014008291CD1012C049800D1D2E00120A6
:101E7000030471680B40F26A059D6C6AA34200D0AE
:101E8000C8E00F231A40EC6AA24200D0C2E09A04D4
:101E90001140AA6A914200D0BCE0002007B0F0BD1A
:101EA0000120020631680492914331604706FFF732
:101EB000A3FD0546022C0BD1049C3068384200D1AA
:101EC00088E0FFF799FD411B03200229F5D9A1E025
:101ED00030683842E1D0FFF78FFD411B0320022913
:101EE000F6D997E0706B042101437163706B012197
:101EF00088437063FFF780FD0546706B8007A9D5A6
:101F0000FFF77AFD411B03200229F6D982E0306AEF
:101F1000039988433062306A042188433062FFF7B6
:101F20006BFD0546306A80071CD5FFF765FD411B38
:101F30000320B942F6D96DE0306A042101433162D1
:101F4000306A039908433062FFF756FD0546306A50
:101F5000800707D4FFF750FD401BB842F7D9032094
:101F600007B0F0BD02980028059C00D0B9E6F069E2
:101F700001998843F061B4E6010432688A43326013
:101F80008004316881433160FFF736FD0546059CCA
:101F90003068384200D17FE6FFF72EFD411B032059
:101FA0006429F5D936E0810432680A4332600104BD
:101FB000306808433060FFF71FFD0546306838423F
:101FC00000D069E6FFF718FD401B6428F6D903200E
:101FD00007B0F0BDF06A0F218843059AD16A01432A
:101FE000F1623D20000471688143906A0843516AA0
:101FF00001437160306820433060FFF7FDFC044608
:102000003068384200D048E7FFF7F6FC011B032098
:102010000229F5D907B0F0BD001002400070004061
:1020200088130000401E010E01D0012070470749AF
:10203000074A5060074803680B4003218907591875
:10204000016000209060072111607047FFFFFF00D2
:1020500010E000E020ED00E0FEE7FEE7704770478B
:1020600080B5FFF7CDFC80BD70470000F0B59DB096
:10207000FFF7D0FC0024049403940794069405947D
:10208000029401940B940520C0040A90099402253F
:102090000895009510200490012003906846FFF7F2
:1020A000C7FD002803D0EFF3108072B6FEE71C9442
:1020B0001B941A950720199019A801252946FFF7A6
:1020C00009FD002803D0EFF3108072B6FEE70494F8
:1020D0000394E904C04802680A43026002680A40A7
:1020E00019921999A90502680A43026002680A4018
:1020F00019921999690402680A430260006808404D
:102100001990199803200702B44839462246FFF770
:102110006BFC0294019400950920C0066E4631467E
:10212000FFF78AFB0394029401950097AB48314670
:10213000FFF782FBAAA0FEF78FF968466421AC4A3C
:10214000FEF765F9ABA0FEF787F9AFA0FEF784F9BB
:10215000B1A0FEF781F9B4A019A9FEF7A3F8199868
:10216000012800D19AE0022800D02FE16846005DE6
:10217000002800D18BE0C01E694608550819417837
:10218000002900D183E0C91E41706846001981789A
:1021900000297CD0C91E817068460019C1780029C9
:1021A00075D0C91EC17068460019017900296ED02A
:1021B000C91E0171684600194179002967D0C91EFE
:1021C0004171684600198179002960D0C91E81716A
:1021D00068460019C179002959D0C91EC1716846E5
:1021E0000019017A002952D0C91E017268460019EF
:1021F000417A00294BD0C91E417268460019817A84
:10220000002944D0C91E817268460019C17A00298C
:102210003DD0C91EC17268460019017B002936D025
:10222000C91E017368460019417B00292FD0C91EC1
:10223000417368460019817B002928D0C91E81732B
:1022400068460019C17B002921D0C91EC1736846A8
:102250000019017C00291AD0C91E017468460019B2
:10226000417C002913D0C91E417468460019817C45
:1022700000290CD0C91E817468460019C17C002950
:1022800005D0C91EC1741434642C00D06EE767A059
:102290006946FDF799FF00201DB0F0BD002069469A
:1022A000095C002900D18BE0C91C6A461154111841
:1022B0004A78002A00D183E0D21C4A706946091886
:1022C0008A78002A7CD0D21C8A7069460918CA789C
:1022D000002A75D0D21CCA70694609180A79002AEA
:1022E0006ED0D21C0A71694609184A79002A67D053
:1022F000D21C4A71694609188A79002A60D0D21C1A
:102300008A7169460918CA79002A59D0D21CCA7143
:10231000694609180A7A002A52D0D21C0A72694604
:1023200009184A7A002A4BD0D21C4A726946091809
:102330008A7A002A44D0D21C8A7269460918CA7A5D
:10234000002A3DD0D21CCA72694609180A7B002AAD
:1023500036D0D21C0A73694609184A7B002A2FD04E
:10236000D21C4A73694609188A7B002A28D0D21CDD
:102370008A7369460918CA7B002A21D0D21CCA7305
:10238000694609180A7C002A1AD0D21C0A746946C8
:1023900009184A7C002A13D0D21C4A7469460918CD
:1023A0008A7C002A0CD0D21C8A7469460918CA7C1F
:1023B000002A05D0D21CCA741430642800D06EE7FD
:1023C0006846FEF749F800201DB0F0BD18A0FEF7E2
:1023D00043F800201DB0F0BD141002400008004872
:1023E000656E746572206120737472696E67200077
:1023F0001800002063686F6F736520796F75722015
:102400006F7074696F6E20002A313A656E6372795D
:102410007074696F6E0000002A323A6465637279E5
:102420007074696F6E000000256400002573000061
:102430006572726F7220000043088B421AD300222B
:1024400003098B4279D3030A8B425ED3030B8B4281
:1024500042D3030C8B4227D30902FF2212BA030C8A
:102460008B4202D31212090203D0030B8B4233D3E7
:102470001AE0D3E0411A8041401C704703460B43E9
:1024800071D443088B42F5D3002203098B4254D305
:10249000030A8B4239D3030B8B421DD3030C8B42AF
:1024A00002D394466EE0090AC30B8B4201D3CB03DF
:1024B000C01A5241830B8B4201D38B03C01A524185
:1024C000430B8B4201D34B03C01A5241030B8B4287
:1024D00001D30B03C01A5241C30A8B4201D3CB0272
:1024E000C01A5241830A8B4201D38B02C01A524157
:1024F000430A8B4201D34B02C01A5241030A8B425A
:1025000001D30B02C01A5241CDD2C3098B4201D371
:10251000CB01C01A524183098B4201D38B01C01AEF
:10252000524143098B4201D34B01C01A5241030966
:102530008B4201D30B01C01A5241C3088B4201D315
:10254000CB00C01A524183088B4201D38B00C01AC2
:10255000524143088B4201D34B00C01A5241411AE9
:10256000524110007047CA0F00D04942031000D3F7
:102570004042534000229C4603098B422DD3030A5C
:102580008B4212D38901FC2212BA030A8B420CD36C
:10259000890192118B4208D3890192118B4204D395
:1025A000890137D0921100E08909C3098B4201D318
:1025B000CB01C01A524183098B4201D38B01C01A4F
:1025C000524143098B4201D34B01C01A52410309C6
:1025D0008B4201D30B01C01A5241C3088B4201D375
:1025E000CB00C01A524183088B4201D38B00C01A22
:1025F0005241D9D243088B4201D34B00C01A5241F9
:10260000411A00D201465241104663465B1000D386
:102610004042704763465B1000D3404201B5002141
:10262000004201D0C9430846C046C04602BD10B5AD
:102630000168002903DC0021FEF7BEF810BD491E29
:10264000016041684A1C4260087810BD10B58A6874
:10265000002A03DC0022FEF7B1F910BD521E8A6089
:102660004A68C0B2531C4B60107010BD10B50029F1
:102670000AD00878002807D005487844FFF784F886
:10268000002801D0002010BD0248784410BD000091
:102690007A000000720000003A7474003A7474000A
:1026A0003A747400000000000000000001020304FE
:1026B0000607080902030405060708090A0B0C0DA2
:1026C0000E0F10100102030405060708090A0B0C7F
:1026D0000D0E0F1008280008000000201800000050
:1026E00000010008202800081800002060070000F2
:1026F0001C0100081001000043000000F8FFFFFF6C
:102700000040404040404040404041414141414004
:1027100040404040404040404040404040404040B9
:102720004005020202020202020202020202020248
:10273000022020202020202020202002020202024D
:1027400002029090909090901010101010101010A5
:1027500010101010101010101010101002020202B1
:1027600002028888888888880808080808080808F5
:1027700008080808080808080808080802020202F1
:102780004000000000000000000000000000000009
:102790000000000000000000000000000000000039
:1027A0000000000000000000000000000000000029
:1027B0000000000000000000000000000000000019
:1027C0000000000000000000000000000000000009
:1027D00000000000000000000000000000000000F9
:1027E00000000000000000000000000000000000E9
:1027F00000000000000000000000000000000000D9
:1028000000000000000000000000000000000000C8
:1028100000000000010000000400000000127A0027
:04000005080000BD32
:00000001FF
