:020000040800F2
:100000007807002081010008831700088117000885
:1000100000000000000000000000000000000000E0
:10002000000000000000000000000000871700082A
:100030000000000000000000851700088917000874
:100040009301000893010008930100089301000840
:100050009301000893010008930100089301000830
:100060009301000893010008930100089301000820
:100070009301000893010008930100089301000810
:10008000930100089301000800000000930100089C
:1000900093010008930100089301000893010008F0
:1000A00093010008930100089301000893010008E0
:1000B00093010008000000009301000800F002F81E
:1000C00000F04EF80CA030C8083824182D18671E10
:1000D000A246AB4654465D46AC4201D100F040F822
:1000E0007E460F3EB6460FCC0126334200D0FB1AA7
:1000F0003343A246AB4618471C1A00003C1A0000C6
:10010000103A02D378C878C1FAD8520701D330C860
:1001100030C101D504680C60704700000023002442
:1001200000250026103A01D378C1FBD8520700D32E
:1001300030C100D50B60704710B5782902D100F0AE
:1001400071F810BD002010BD1FB50098019900F096
:10015000CAFC00F0A5F91FBD10B500F00DFA10BDE6
:1001600000F03CFA1146FFF7EFFF01F013FB00F03F
:1001700037FC03B4FFF7F0FF03BC00F033FE0000D0
:100180000748804707480047FEE7FEE7FEE7FEE72F
:10019000FEE7FEE704480549054A064B70470000A4
:1001A00091170008BD0000087801002078070020A2
:1001B00078030020780300200FB4054910B503AA86
:1001C000029800F03DF910BC08BC04B018470000CC
:1001D0006C00002070B5044685690068C10601D531
:1001E000302600E02026C00707D070BD6268304688
:1001F000A1689047206A401C20626D1EF6D570BD34
:1002000070B5044685690078C00707D170BD626883
:10021000A16820209047206A401C20626D1EF6D500
:1002200070BD000070B504460D4621461068C046FA
:10023000C0462188090502D50F4A7A4402E00E4AD9
:100240007A440E3223460021243305E006070009D4
:10025000360F965D5E54491C0028F7D120780023A4
:10026000000705D5702D03D0002901D002231132DB
:10027000204600F08DF870BD6A180000F3B5044602
:10028000002081B020622046E168884700287AD0AB
:10029000252802D06268A16871E0E1682046002547
:1002A000884706460020E0610746A0612A2E0AD052
:1002B000304601F0E2FB002827D0B8000019303E9C
:1002C0000090866119E00298BA00121902C8916183
:1002D00002902046E1688847012F064617D1E06961
:1002E00000281FDA202085431CE000980A2180693D
:1002F000484300998019303888612046E168884772
:10030000064601F0BAFB0028EFD1012F0AD02E2EAD
:1003100008D12046E16888470646202005437F1C17
:10032000022FC3DBA069002803DA4042A06101204C
:100330000543E80701D010208543002E23D0304626
:100340004138192803D80120C00205432036204631
:1003500025603146029A1546FFF7EEFE00280BD0C5
:10036000012806D0ED1DE808C000083002908AE799
:1003700009E02D1D029586E762683046A168904726
:10038000206A401C7EE7206AFEBD704770477047B8
:10039000FFB504460D4681B02430009021688806E0
:1003A00004D51022E0699143216000E00120A842B9
:1003B00001DD471B00E000270498A1697A19101895
:1003C000081AA0612078C00602D42046FFF702FF79
:1003D000002608E003986268A168805D9047206A63
:1003E000401C761C206204988642F3DB2078C0060D
:1003F0000AD52046FFF7EEFE06E06268A1683020CD
:100400009047206A401C206238467F1E0028F4DC9A
:1004100007E000986268A168405D9047206A401C30
:10042000206228466D1E0028F3DC2046FFF7E8FE18
:100430002078000602D5022005B0F0BD0120FBE7C0
:10044000084B70B50D467B4400F013F8044628466F
:1004500000F022F8002802D00020C04370BD2046E2
:1004600070BD00003F16000001694A1C0261087857
:10047000704700B58FB002910021059105490193A5
:1004800079440391114604906846FFF7F7FE0FB0D8
:1004900000BD0000E5FFFFFFC068802108407047F5
:1004A00010B54348542100F0C7FA4248542100F0E7
:1004B000C3FA4148542100F0BFFA40483C493D4B43
:1004C000404A01603E4803603B4810605A1C0A6580
:1004D000411C1965012101653C48354A3AA178441F
:1004E00000F0E2F9002804D1384878440C3800F0D4
:1004F0007FFA38482F4A36A1784400F0D5F9002811
:1005000004D1344878440C3800F072FA32482A4A50
:100510002FA1784400F0C8F9002804D12E4878446F
:100520000C3800F065FA40232148DC000021224607
:1005300000F094F9002804D0244878445C3800F096
:1005400057FA1C4822464023002100F087F9002872
:1005500004D0204878445C3800F04AFA1648224615
:100560001023002100F07AF9002804D01A487844BA
:100570005C3800F03DFA10BD0F4870B5006D4408BE
:100580000B48640000F008FA0A4800F005FA0A482F
:1005900000F002FA09E0206D450820466D0000F0E9
:1005A000FBF9204600F039F82C46002CF3D170BD41
:1005B000180000206C000020C00000200000002077
:1005C000040000200800002072000000EE1500006A
:1005D00077000000D8150000C2150000754600F035
:1005E00061FAAE46050069465346C008C00085461C
:1005F00018B020B5FFF7CEFD60BCB6460026002738
:10060000C0C5C0C5C0C5C0C5C0C5C0C5C0C5C0C5C2
:10061000403D490849008D46704770B50446051FA6
:1006200000F044FA0068002C1AD0446801E020462B
:100630006468002C01D0AC42F9D301680A18AA42C0
:1006400004D12A6805468918016000E045602868E1
:100650004119A14205D1616869602168401828608C
:1006600070BD6C6070BD0000F7B505460C46C868EB
:100670000521C9048843012189050843E0608006FB
:1006800002D5204600F069FB7249E068014002296A
:1006900003D0204600F000FBBEE005210122490303
:1006A0000140D20391420FD1C00306D56168E06AD0
:1006B000884200D80846606006E02069E062606019
:1006C000606900F0E8F9A061A1680022EEB200299B
:1006D0000EDAE06883050BD4C943A16009212260CA
:1006E00049030843E0606068411C61600670AEE049
:1006F000E068012149030843E06000202060206990
:10070000002831D1606900F0B8F901252746243767
:10071000ED02002816D0A0898005800F08D0E0697E
:1007200000F00EFA0028206102D0E068284318E0AB
:1007300001202761E061E06803210902884301216B
:1007400089020DE0E06900F0FBF900282061EFD09C
:10075000E0682843E0608105890F03D1FF21013162
:100760000843E06020696060E2683B4F2569D0057E
:1007700020D56168E06A884200D80846411B05D050
:100780002246284600F092FA002845D10298002817
:1007900004D0E56200206560A06055E0681CE0625E
:1007A0006060E069401EA060E0683843E060304669
:1007B0002E70FEBD0298002801D03A4009E0606822
:1007C000411C61600670E06838430A2EE06006D084
:1007D0000022E16A6068814203D90B4602E00122EF
:1007E000F7E70346A7895B1B7F0504D4E7699F42AF
:1007F00001DD002A1ED0814200D801460F1A0020D8
:10080000E5626560002BA06009DD22461946284696
:1008100000F04CFA002802D00020C043FEBD002F9B
:1008200008D0A069E5626560C01BA061E068102186
:100830000843E0600298002809D06168A069E56279
:10084000491B40186560A0610120C043FEBD3046D1
:10085000FEBD0000821000000000010070B5C468F9
:10086000A50713D0650211D4D51FF93D0AD0FF3D6D
:100870006D1E07D0FF3DFF3D022D07D101462431FB
:10088000012305E0074E5D1EB54201D3012070BD76
:100890000161C36141600F2109028C431443C460AC
:1008A000002070BDFFFFFF00F7B516460C4600980C
:1008B000002843D0104600F06FF82078611C6128B2
:1008C0000AD0722802D0772839D102E0012500240D
:1008D00004E00225042401E02D4D08240222032314
:1008E00001270878491C2B2806D0622807D0203918
:1008F000C87F742807D008E01D431443F1E70420A3
:1009000005433C43EDE7102004430098214600F0E6
:1009100095F8411C13D00021316171600121F5600F
:100920004902F1617061200704D53046022200219E
:1009300000F038F9306D384330653046FEBD002098
:10094000FEBDF8B50D460646124C206DC10704D019
:10095000410804D044086400F7E7224610E0542020
:1009600000F0EEF8070010D07908206D4900012250
:100970001143084354212065384600F05DF83A469B
:1009800029463046FFF790FFF8BD0020F8BD000073
:100990000280000018000020F8B5044600264769D0
:1009A00000690090E568A80717D0204600F0AFF96D
:1009B000384600F04DF8002800DA761E280502D5EA
:1009C0000098FFF72AFE4C21204600F035F8206DF4
:1009D0004008400020653046F8BD0020C043F8BD07
:1009E00010B50446C046C0462046FFF7C2FB10BD06
:1009F00010B500F0DDF900F0D5F910BD01E004C03C
:100A0000091F0429FBD28B0701D50280801CC9076E
:100A100000D00270704700290BD0C30702D00270CB
:100A2000401C491E022904D3830702D50280801C82
:100A3000891EE3E70022EEE70022DFE70EB5019111
:100A4000009000F039FA029069460120ABBE0EBD5D
:100A500008B5694600900220ABBE08BD1FB56B46C5
:100A600007C369460520ABBE04B010BD1FB56C4678
:100A70000FC469460620ABBEF6E708B5694600908C
:100A80000920ABBE08BD1CB500900A200191694643
:100A9000ABBE1CBD704708B5694600900C20ABBECC
:100AA00008BD00000048704714010020004870474E
:100AB0001C010020704770477047704738B50446E6
:100AC0000A4600206946C046C046002805D00246B6
:100AD0002046009900F094F9012038BD10B501209E
:100AE00000F0E3F910BDF8B5C046C0460546002049
:100AF0000C461020C0460646A819A0420DD9324621
:100B000069460020C046C046070001D100F0CDF97B
:100B10000098A04200D00546C419FFF7C7FFF61D94
:100B200007460560F008C0004619284600F061F944
:100B3000B44204D031463868A21B00F061F9F8BD18
:100B400070B50646FFF7B2FF056830460B30C408A3
:100B5000E400B44201D8002070BD68682A4600282D
:100B600018D00168A14211D30B46214608318B42AF
:100B700008D3436801194B6003681B1B0B6051606D
:100B8000046001E041685160001D70BD024640688C
:100B90000028E6D121462846FFF790FF0028DCD147
:100BA00070BD0000F8B5044616460D464769007B47
:100BB000800730D03846FFF760FF00282BD132463F
:100BC0001026002A25D0012A02D0022A23D104E0CF
:100BD000204600F02FF945191BE03846FFF75BFF70
:100BE000E16831430028E16004DA204600F054F85F
:100BF0000120F8BDC9030BD56268E16A914200D8B3
:100C00001146A26989182269891A814200DD0846C5
:100C10002D18002D01DA0220F8BDE16A6068E26853
:100C2000814206D29103E06203D5012149048A433F
:100C30003243A669AE4211DCE16A814201D90B461A
:100C400000E003469F192369FF1AAF4206DD814287
:100C500001D90F4600E007469F4206D120200243FB
:100C60000020A060A56220600DE0AD1BE669AE1B10
:100C70008142A66000D90846C01A281A2060581977
:100C8000606020208243034802400020E26040343C
:100C90002072F8BDBFCFD7FFC168802211439203F5
:100CA0009143C1600021816001607047F7B515462E
:100CB0000C4682B0506900903748D768074209D087
:100CC000A9690098FFF7DFFE002815DB3248C04312
:100CD0000740EF60314EB44200D826463B463246CC
:100CE00002990098FFF7BAFE4200A9695208B21AA9
:100CF00089180028A96106D02846FFF7CDFF0020FB
:100D0000C04305B0F0BDA41BE4D10020F9E770B5E5
:100D100004460569C06A6168884200D80846E168EF
:100D20000522D2049143E160C90314D5A84209D039
:100D30002246411B2846FFF7B9FF002802D00020B9
:100D4000C04370BDE56200206560A060E0680121DD
:100D500009048843E060002070BD10B50446C068F7
:100D600020218843E060A16AA06988420ED0204615
:100D7000FFF7CDFFE06803210903884310210843F2
:100D8000E060A06AA0612069E06260600449E068F8
:100D90000840E06010BD000010000200FFFFFF7F70
:100DA000BFBFFFFF10B5002801D000F01BF810BD39
:100DB00010B5014602A000F05EF8012010BD000051
:100DC00053494752545245443A205265646972650A
:100DD00063743A2063616E2774206F70656E3A20E9
:100DE0000000000001491820ABBEFEE7260002000B
:100DF000704700210160416080607047102070479B
:100E000010B50346406801E003464068002801D061
:100E10008842F9D31868C3188B4206D0CB1CD80877
:100E2000C000001D411A521A0146081D0A60FFF752
:100E3000F4FB10BD10B50146C268900703D09006C0
:100E400007D5886A0AE000F05FF801210160881E7A
:100E500010BD8B694868C0180B69C01A40310B7A05
:100E6000002B02D0497A401A10BD1103FCD500288E
:100E7000FADD401E10BD70B505460C460A2000E0A4
:100E80006D1C00F03BF8002D06D028780028F7D123
:100E900002E0641C00F032F8002C02D02078002818
:100EA000F7D10A2000F02AF870BD10B500F030F834
:100EB000FFF778FF10BD000030B5441C03E0017857
:100EC000401C00290DD08107F9D10B4BDD0104C86E
:100ED000D11A91432940FAD0001B0A0603D0C01E44
:100EE00030BD001B30BD0A0401D0801E30BD090298
:100EF000FCD0401E30BD00000101010108B569466B
:100F000008700320ABBE08BD0048704714010020E4
:100F100010B5012805D0002103A0FFF7ACFF012088
:100F200010BD09A1F8E7000053494752544D454D03
:100F30003A204F7574206F662068656170206D657A
:100F40006D6F7279000000003A2048656170206D75
:100F5000656D6F727920636F72727570746564006D
:100F6000F0B58AB003900F68002F00D1C3E063484A
:100F7000039A824201D0052000E003200090002364
:100F80001A461C4608910BE03A43F260079A641C2B
:100F90000F683846E0409B1C121D002800D1AAE0D3
:100FA00001260596A6403740F1D00792032002465D
:100FB0009A400293D34349680D4605406A1E012AB0
:100FC0000693049113D80197039FB8681840089AB4
:100FD000D268029B9A400243BA60C806C00FA04084
:100FE0007A68B2433E46019F0243726006E0032DD9
:100FF000039E029B02D10546079A1EE0F0680699FF
:10100000084008998A689A400243F260022D079AC4
:1010100013D11C2010400F218140E2089200B21829
:10102000156A8D43089E3169814029431162079AF0
:101030007068039E0325049005409D403068069922
:1010400008402843306004988003800F08999ED0A0
:101050005B490868059D2843086008682840099096
:101060000C2010400F228240032125468D43099910
:10107000244EA9599143AD190922D206039E9642E6
:101080000CD0214A964206D0204A9642009A1C4E25
:1010900006D1022204E01A4E059A01E00022184E01
:1010A00082400A432A603568089801464068C203B6
:1010B0000FD53D433560756882030FD4BD4375601D
:1010C000B568C2020FD4BD43B560F268800210D586
:1010D0005AE7BD43356075688203EFD53D437560BF
:1010E000B568C202EFD53D43B560F268800200D515
:1010F0004AE7BA4349E70AB0F0BDC046000C0048D1
:1011000000040140080001400004004800080048B5
:10111000002A02D01822815070472822815070473F
:10112000054800687047C0461A48007802490A68B6
:10113000101808607047C0467401002010B57D4843
:10114000016810220A4302600024204600F004F8DF
:1011500000F022F8204610BD70B504467D20C00086
:101160000C4E317800F08EFB01467A48006800F0A2
:1011700089FB00F0EBFA0125032C08D8002806D1E2
:101180000025E84321462A4600F01CF874602846F2
:1011900070BDC0460C00002082B0094801680122E1
:1011A00011430160016811400191019911074268E2
:1011B0000A434260406808400090009802B07047BF
:1011C00018100240002805D40322034693430A4A1C
:1011D0009A1803E00C220240064BD2188007C00E7A
:1011E0008901C9B28140FF238340106898430843B6
:1011F0001060704714ED00E000E400E0F0B581B04D
:1012000000284FD004464B4A1368012003408B420C
:1012100008D213680126B3430B43136012683240AF
:101220008A4240D1009121688A07434B11D54A0771
:1012300007D507221202404B1B6813433E4A136036
:101240003D4B1A68F0239A43A36813433A4A13604C
:10125000394BC9072AD13749086801263040009A1E
:10126000904205D90868B04308600868C0071AD1E1
:101270002078400706D50720000219688143E068FE
:101280000843186019680C220A402D48082A18D112
:101290008A02120F2B4B9C5C274B9A6AC90332D4EB
:1012A0002A4837E00126304601B0F0BD61681A1FB8
:1012B000022908D001290BD1126892030646F2D503
:1012C0000AE0044627E0126892010646EBD503E0E7
:1012D000126892070646E6D518680326B04308430D
:1012E0001860FFF71DFF0746144D134B18680C21BB
:1012F0000140606880008142ADD0FFF711FFC01B44
:10130000A842F2D9CFE70F210A400F49895C00F0CB
:10131000B9FA094B444318680006000F0C49085CF1
:10132000C4400C48046000263046FFF715FF3046E5
:1013300001B0F0BD002002400410024088130000FC
:1013400000127A00EC1A0008FC1A000800093D009F
:10135000DC1A000814000020F0B587B00446012014
:10136000002C00D1EAE104902078C007F44E0594E7
:1013700026D071680C20014004291AD07168014000
:10138000082902D17068C00313D4616801204704A2
:10139000002900D184E1052900D198E1012900D17B
:1013A00099E1010432688A433260810430688843DD
:1013B00094E13068800303D56068002800D1BDE067
:1013C000207880071AD570680007800F07D07068F2
:1013D0000C210140082975D17068C00372D43068AF
:1013E0008007059C03D5E068012800D0A6E030689E
:1013F000F82188432169C90001433160059C2078A8
:10140000000724D42078400736D42078C00600D4C2
:10141000B4E005984069411D00D1A3E0012800D047
:10142000F4E0706B042101437163706B012101438F
:101430007163FFF775FE0546706B800700D595E078
:10144000FFF76EFE411B03200229F5D976E1706A91
:10145000E169002960D0012108437062FFF760FE56
:101460000546706A8007CDD4FFF75AFE401B02285C
:10147000F7D9032007B0F0BD012003900107F06900
:101480000840029006D1F0690843F061F069084015
:10149000069006980191AB4F3868C00528D4039890
:1014A0000402386820433860FFF73AFE0546386882
:1014B00020421DD1FFF734FE401B6428F7D90320DA
:1014C00007B0F0BD3068059CE168002939D00121E2
:1014D00008433060FFF724FE05463068800786D455
:1014E000FFF71EFE401B0228F7D9032007B0F0BD0E
:1014F00005988068944F002800D19CE0052800D111
:10150000AEE0012800D1AFE0306A03998843306231
:10151000306A04218843AAE0012188437062FFF702
:10152000FFFD0546706A800700D46BE7FFF7F8FD02
:10153000401B0228F6D9032007B0F0BD049807B07D
:10154000F0BD012188433060FFF7EAFD05463068B1
:10155000800700D452E7FFF7E3FD411B0320022977
:10156000F5D9EBE0706B042188437063706BF82150
:10157000884305998969C900014371630598046A24
:10158000002C1ED070680C21014008291CD1012CB0
:10159000049800D1D2E00120030471680B40F26A84
:1015A000059D6C6AA34200D0C8E00F231A40EC6A84
:1015B000A24200D0C2E09A041140AA6A914200D02F
:1015C000BCE0002007B0F0BD0120020631680492A3
:1015D000914331604706FFF7A3FD0546022C0BD16E
:1015E000049C3068384200D188E0FFF799FD411B28
:1015F00003200229F5D9A1E030683842E1D0FFF795
:101600008FFD411B03200229F6D997E0706B04215E
:1016100001437163706B012188437063FFF780FDA4
:101620000546706B8007A9D5FFF77AFD411B0320A3
:101630000229F6D982E0306A039988433062306A21
:10164000042188433062FFF76BFD0546306A80074E
:101650001CD5FFF765FD411B0320B942F6D96DE0AB
:10166000306A042101433162306A039908433062D1
:10167000FFF756FD0546306A800707D4FFF750FD97
:10168000401BB842F7D9032007B0F0BD02980028EC
:10169000059C00D0B9E6F06901998843F061B4E691
:1016A000010432688A4332608004316881433160CA
:1016B000FFF736FD0546059C3068384200D17FE6CD
:1016C000FFF72EFD411B03206429F5D936E0810484
:1016D00032680A4332600104306808433060FFF723
:1016E0001FFD05463068384200D069E6FFF718FD57
:1016F000401B6428F6D9032007B0F0BDF06A0F2123
:101700008843059AD16A0143F1623D200004716863
:101710008143906A0843516A0143716030682043F5
:101720003060FFF7FDFC04463068384200D048E7DF
:10173000FFF7F6FC011B03200229F5D907B0F0BD25
:10174000001002400070004088130000401E010E8F
:1017500001D0012070470749074A506007480368D5
:101760000B40032189075918016000209060072170
:1017700011607047FFFFFF0010E000E020ED00E087
:10178000FEE7FEE77047704780B5FFF7CDFC80BDF0
:1017900070470000F0B591B0FFF7D0FC0024099429
:1017A00008940C940B940A940794069410940520C2
:1017B000C0040F900E9402250D95059510200990F8
:1017C0000120089005A8FFF7C7FD002803D0EFF31C
:1017D000108072B6FEE704940394029507200190EE
:1017E00001A801252946FFF709FD002803D0EFF3E2
:1017F000108072B6FEE709940894E9041E48026856
:101800000A43026002680A4001920199A905026830
:101810000A43026002680A40019201996904026861
:101820000A43026000680840019001980320070203
:10183000124839462246FFF76BFC07940920410401
:1018400006910595C00605AE3146FFF789FB089461
:1018500007940695059709483146FFF781FB084D27
:1018600075212846FEF7A8FCAC212846FEF7A4FC0B
:10187000204611B0F0BDC0461410024000080048D8
:101880000C1B000843088B421AD3002203098B4229
:1018900079D3030A8B425ED3030B8B4242D3030CF2
:1018A0008B4227D30902FF2212BA030C8B4202D3C8
:1018B0001212090203D0030B8B4233D31AE0D3E098
:1018C000411A8041401C704703460B4371D44308C2
:1018D0008B42F5D3002203098B4254D3030A8B4277
:1018E00039D3030B8B421DD3030C8B4202D3944696
:1018F0006EE0090AC30B8B4201D3CB03C01A5241DD
:10190000830B8B4201D38B03C01A5241430B8B4292
:1019100001D34B03C01A5241030B8B4201D30B037B
:10192000C01A5241C30A8B4201D3CB02C01A5241A2
:10193000830A8B4201D38B02C01A5241430A8B4265
:1019400001D34B02C01A5241030A8B4201D30B024E
:10195000C01A5241CDD2C3098B4201D3CB01C01A68
:10196000524183098B4201D38B01C01A5241430972
:101970008B4201D34B01C01A524103098B4201D360
:101980000B01C01A5241C3088B4201D3CB00C01ACD
:10199000524183088B4201D38B00C01A5241430845
:1019A0008B4201D34B00C01A5241411A52411000E0
:1019B0007047CA0F00D04942031000D34042534041
:1019C00000229C4603098B422DD3030A8B4212D37B
:1019D0008901FC2212BA030A8B420CD389019211AD
:1019E0008B4208D3890192118B4204D3890137D0ED
:1019F000921100E08909C3098B4201D3CB01C01ABF
:101A0000524183098B4201D38B01C01A52414309D1
:101A10008B4201D34B01C01A524103098B4201D3BF
:101A20000B01C01A5241C3088B4201D3CB00C01A2C
:101A3000524183088B4201D38B00C01A5241D9D244
:101A400043088B4201D34B00C01A5241411A00D2C5
:101A500001465241104663465B1000D34042704736
:101A600063465B1000D3404201B50021004201D023
:101A7000C9430846C046C04602BD30380A2801D2D4
:101A8000012070470020704710B58A68002A03DCE7
:101A90000022FEF7E9FD10BD521E8A604A68C0B2FE
:101AA000531C4B60107010BD303132333435363733
:101AB0003839414243444546403058003031323392
:101AC0003435363738396162636465664030780092
:101AD0003A7474003A7474003A74740000000000A0
:101AE00000000000010203040607080902030405C0
:101AF000060708090A0B0C0D0E0F10100102030453
:101B000005060708090A0B0C0D0E0F102531780A7F
:101B100000000000381B0008000000201800000032
:101B200000010008501B000818000020600700009A
:101B30001C01000800000000000000000000000080
:101B400000000000010000000400000000127A0004
:04000005080000BD32
:00000001FF
