:020000040800F2
:100000004007002061010008B1130008AF13000889
:1000100000000000000000000000000000000000E0
:10002000000000000000000000000000B7130008FE
:100030000000000000000000B3130008B91300081E
:10004000730100087301000873010008030200082F
:10005000B51300087301000873010008730100085C
:1000600073010008730100087301000873010008A0
:100070007301000873010008730100087301000890
:1000800073010008730100080000000073010008FC
:100090007301000873010008730100087301000870
:1000A0007301000873010008730100087301000860
:1000B00005190008000000007301000800F002F8B4
:1000C00000F03EF80CA030C8083824182D18671E20
:1000D000A246AB4654465D46AC4201D100F030F832
:1000E0007E460F3EB6460FCC0126334200D0FB1AA7
:1000F0003343A246AB461847841C0000A41C0000F2
:10010000103A02D378C878C1FAD8520701D330C860
:1001100030C101D504680C60704700000023002442
:1001200000250026103A01D378C1FBD8520700D32E
:1001300030C100D50B6070471FB51FBD10B510BD95
:1001400000F02DF81146FFF7F7FF01F0E1FB00F09A
:1001500045F803B4FFF7F2FF03BC00F04BF80000D2
:100160000748804707480047FEE7FEE7FEE7FEE74F
:10017000FEE7FEE704480549054A064B70470000C4
:10018000C1130008BD000008400100204007002006
:1001900040030020400300207047704770477546B9
:1001A00000F024F8AE46050069465346C008C0007A
:1001B000854618B020B5FFF7DDFF60BCB6460026C7
:1001C0000027C0C5C0C5C0C5C0C5C0C5C0C5C0C565
:1001D000C0C5403D490849008D46704710B50446EA
:1001E000C046C0462046FFF7B4FF10BD0048704728
:1001F0002800002001491820ABBEFEE726000200BF
:10020000704780B500F062F880BD0000854900228B
:10021000CA6183490A68022313430B604860086877
:10022000402202430A60704710B5014620314A78E7
:10023000022A12D1026813680E24A34313601368C4
:100240000124A3431360C26B006C234683405360B8
:100250004C70002000220A7010BD0422826301202D
:1002600000220A7010BDB0B5014620314A78022A3A
:1002700016D1026813680E24A34313601368012586
:10028000AB431360C26B036C2C469C40546000244B
:100290000C704D70416B002900D088472046B0BDDE
:1002A000042181630120B0BDB0B5044600F0A6F979
:1002B0000546601C02D0EE480078041900F09EF953
:1002C000401BA042FAD3B0BD7047000070B5544D3A
:1002D0002C1F2068C00602D4206840071AD5514E52
:1002E000B0680021CA43B2602268D20604D5F16921
:1002F00002220A43F26110212268520705D5F269F1
:1003000001231343F36104221143216000F08CF8B0
:1003100000203070206880065BD520202060414E90
:100320003078002855D03078012818D17068401EE8
:1003300070607068002846D0B068FFF7C5FF0120E4
:100340008002B1680818B0602968022291432960D0
:10035000FFF75CFF3348017800293ED154E0307844
:1003600002280DD1286804218843286000242046F3
:10037000FFF7AAFF34702B48017800292DD143E004
:100380007068401E70607068002827D0B068801CBC
:10039000B060B06831697269130C73611204090CA2
:1003A0008918316129680122914329607169316995
:1003B0000023F3612B6813432B60018019480178F7
:1003C00000290AD120E00021C843B0603170FFF756
:1003D0007BFF14480178002916D070BD30780328BF
:1003E00001D1B06806E03178B068042901D1801EDF
:1003F00000E0801FFFF768FF0020C143B16030704C
:10040000084801780029E8D129680722914329602A
:10041000002101760520800229688143296070BD92
:10042000102002401801002070470000F0B58AB08B
:1004300003900F68002F00D1C3E06348039A824203
:1004400001D0052000E00320009000231A461C463E
:1004500008910BE03A43F260079A641C0F68384633
:10046000E0409B1C121D002800D1AAE00126059641
:10047000A6403740F1D00792032002469A400293EB
:10048000D34349680D4605406A1E012A069304912C
:1004900013D80197039FB8681840089AD268029B46
:1004A0009A400243BA60C806C00FA0407A68B243BF
:1004B0003E46019F0243726006E0032D039E029BAD
:1004C00002D10546079A1EE0F0680699084008998F
:1004D0008A689A400243F260022D079A13D11C20C9
:1004E00010400F218140E2089200B218156A8D4336
:1004F000089E3169814029431162079A7068039E02
:100500000325049005409D40306806990840284323
:10051000306004988003800F08999ED0694908686C
:10052000059D284308600868284009900C20104069
:100530000F228240032125468D430999244EA95953
:100540009143AD190922D206039E96420CD0214A4E
:10055000964206D0204A9642009A1C4E06D10222AC
:1005600004E01A4E059A01E00022184E82400A4328
:100570002A603568089801464068C2030FD53D439C
:100580003560756882030FD4BD437560B568C202DB
:100590000FD4BD43B560F268800210D55AE7BD4361
:1005A000356075688203EFD53D437560B568C2025A
:1005B000EFD53D43B560F268800200D54AE7BA4303
:1005C00049E70AB0F0BDC046000C004800040140F5
:1005D00008000140000400480008004842690B463A
:1005E00093430A401104C91881617047002A02D060
:1005F00018228150704728228150704705480068B2
:100600007047C0461A48007802490A681018086006
:100610007047C0463801002010B58D48016810228F
:100620000A4302600024204600F004F800F022F89B
:10063000204610BD70B504467D20C0000C4E3178B8
:1006400001F084FA01468A48006801F07FFA00F060
:1006500033FB0125032C08D8002806D10025E843E8
:1006600021462A4600F03CF87460284670BDC0461A
:1006700018000020B0B582B0124801680122114371
:1006800001600168114001910199110742680A4314
:1006900042604068084000900098032400252046EE
:1006A00029462A4600F01CF8204600F00DF80424E4
:1006B000204629462A4600F013F8204600F004F8A8
:1006C00002B0B0BD18100240002805D41F21084018
:1006D00001218140014801607047C04600E100E00F
:1006E000002805D40322034693430A4A9A1803E0DC
:1006F0000C220240064BD2188007C00E8901C9B2F5
:100700008140FF238340106898430843106070477E
:1007100014ED00E000E400E0F0B581B000284FD017
:1007200004464B4A1368012003408B4208D21368E9
:100730000126B3430B431360126832408A4240D112
:10074000009121688A075A4B11D54A0707D507221D
:100750001202574B1B681343554A1360544B1A68D7
:10076000F0239A43A3681343514A1360504BC907BF
:100770002AD13749086801263040009A904205D9AD
:100780000868B04308600868C0071AD1207840079D
:1007900006D50720000219688143E0680843186005
:1007A00019680C220A404348082A18D18A02120FFD
:1007B000414B9C5C3E4B9A6AC90332D4404837E0B7
:1007C0000126304601B0F0BD61681A1F022908D029
:1007D00001290BD1126892030646F2D50AE00446BD
:1007E00027E0126892010646EBD503E012689207F3
:1007F0000646E6D518680326B04308431860FFF79D
:10080000FDFE0746134D2A4B18680C210140606815
:1008100080008142ADD0FFF7F1FEC01BA842F2D9A3
:10082000CFE70F210A402549895C01F08FF9204B61
:10083000444318680006000F0749085CC4400C4890
:10084000046000263046FFF7F5FE304601B0F0BDEB
:100850000020024088130000421D00080448006880
:10086000134909684905490F024A515CC84070475D
:1008700020000020521D000810B50D490A680C2305
:1008800013400C48082B09D193021B0F0A4CE45C5F
:10089000896AD20303D40A484443204610BD0F227C
:1008A0001140064A515C01F051F94443204610BD05
:1008B0000410024000127A005A1D00086A1D000848
:1008C00000093D00F0B587B004460120002C00D19E
:1008D000EAE104902078C007F44E059426D07168B0
:1008E0000C20014004291AD071680140082902D166
:1008F0007068C00313D4616801204704002900D147
:1009000084E1052900D198E1012900D199E1010490
:1009100032688A43326081043068884394E13068E9
:10092000800303D56068002800D1BDE020788007EF
:100930001AD570680007800F07D070680C2101403D
:10094000082975D17068C00372D430688007059C8F
:1009500003D5E068012800D0A6E03068F82188437C
:100960002169C90001433160059C2078000724D427
:100970002078400736D42078C00600D4B4E005982B
:100980004069411D00D1A3E0012800D0F4E0706B64
:10099000042101437163706B012101437163FFF70F
:1009A0002DFE0546706B800700D595E0FFF726FE0B
:1009B000411B03200229F5D976E1706AE16900291B
:1009C00060D0012108437062FFF718FE0546706A87
:1009D0008007CDD4FFF712FE401B0228F7D9032071
:1009E00007B0F0BD012003900107F06908400290B4
:1009F00006D1F0690843F061F06908400690069856
:100A00000191AB4F3868C00528D4039804023868B8
:100A100020433860FFF7F2FD0546386820421DD1BB
:100A2000FFF7ECFD401B6428F7D9032007B0F0BDA9
:100A30003068059CE168002939D001210843306005
:100A4000FFF7DCFD05463068800786D4FFF7D6FD4A
:100A5000401B0228F7D9032007B0F0BD0598806835
:100A6000944F002800D19CE0052800D1AEE0012879
:100A700000D1AFE0306A039988433062306A0421C4
:100A80008843AAE0012188437062FFF7B7FD05465D
:100A9000706A800700D46BE7FFF7B0FD401B0228A7
:100AA000F6D9032007B0F0BD049807B0F0BD0121CE
:100AB00088433060FFF7A2FD05463068800700D408
:100AC00052E7FFF79BFD411B03200229F5D9EBE01C
:100AD000706B042188437063706BF821884305991B
:100AE0008969C900014371630598046A002C1ED00E
:100AF00070680C21014008291CD1012C049800D1F8
:100B0000D2E00120030471680B40F26A059D6C6A13
:100B1000A34200D0C8E00F231A40EC6AA24200D0E2
:100B2000C2E09A041140AA6A914200D0BCE00020C1
:100B300007B0F0BD01200206316804929143316094
:100B40004706FFF75BFD0546022C0BD1049C30687D
:100B5000384200D188E0FFF751FD411B03200229F4
:100B6000F5D9A1E030683842E1D0FFF747FD411BDD
:100B700003200229F6D997E0706B042101437163C9
:100B8000706B012188437063FFF738FD0546706B79
:100B90008007A9D5FFF732FD411B03200229F6D9B2
:100BA00082E0306A039988433062306A04218843C6
:100BB0003062FFF723FD0546306A80071CD5FFF73A
:100BC0001DFD411B0320B942F6D96DE0306A0421B6
:100BD00001433162306A039908433062FFF70EFD2A
:100BE0000546306A800707D4FFF708FD401BB8426E
:100BF000F7D9032007B0F0BD02980028059C00D06B
:100C0000B9E6F06901998843F061B4E601043268FD
:100C10008A4332608004316881433160FFF7EEFC23
:100C20000546059C3068384200D17FE6FFF7E6FCB8
:100C3000411B03206429F5D936E0810432680A4358
:100C400032600104306808433060FFF7D7FC054686
:100C50003068384200D069E6FFF7D0FC401B6428BA
:100C6000F6D9032007B0F0BDF06A0F218843059A3A
:100C7000D16A0143F1623D20000471688143906AAA
:100C80000843516A01437160306820433060FFF7C8
:100C9000B5FC04463068384200D048E7FFF7AEFCA8
:100CA000011B03200229F5D907B0F0BD0010024056
:100CB0000070004088130000401E010E01D001208A
:100CC00070470749074A5060074803680B400321F3
:100CD0008907591801600020906007211160704752
:100CE000FFFFFF0010E000E020ED00E070477047DC
:100CF00070470000F0B589B00368DE691A682021EA
:100D0000089205910A40514251410127FD022C46AB
:100D10002F3407963440203C661EB4410C439E6835
:100D200060D002A98CC106900246583201950F3559
:100D3000079F2F42089807D0E3490140012334461A
:100D40001C40611800D097E01023014619404C4226
:100D50004C413D46394619404F424F410698016E7D
:100D600001290498014643D139460029014642D061
:100D7000002943D02F46012399050E407442744147
:100D8000E9020146039A00D521460029069800D1C0
:100D9000F0E08021089A11404C424C4139060499F8
:100DA00000D52146002900D182E14025089929403B
:100DB0004C424C41790600D50494049900290FD186
:100DC000EFF3108183F3108802681368AB4313605C
:100DD00081F31088002181660599816700F0E6FAA9
:100DE00009B0F0BD416E0029FAD0884709B0F0BDC6
:100DF00000290146BCD121460029BBD103980362DA
:100E00008068400600D5BBE0548810885288002ACC
:100E10000699E5D0A042E3D00894EFF310840122B4
:100E200082F3108809256D010E683768AF4337607B
:100E300084F31088EFF3108482F310880D68AE6895
:100E40009643AE6084F31088059CCC6700244C6602
:100E50000C66EFF3108482F310880A6815689D43CE
:100E6000156084F31088089A801A82B208461146E9
:100E7000FFF73CFF09B0F0BD190201404E424E4160
:100E8000F9070498014600D031460029039D03D19B
:100E90002B62916A1943916266426641B907014625
:100EA00000D53146002905D102212962916A042624
:100EB0000E439662664266417907014600D5314687
:100EC000002905D104212962916A02260E43966207
:100ED00002990C43664266413907044600D5344600
:100EE000002C04D108212962946A0C43946299066B
:100EF000089E0E407442744101990F42069E0CD028
:100F000020463C4600280BD12962916A059801438E
:100F10009162916A002907D162E73C460028F3D02C
:100F2000916A002900D15BE71746059821460140E8
:100F30000298444244410029049800D020460028E9
:100F40003C4608D1716E002905D030461C468847C2
:100F500023463C463568A16A28220A40A9684020F9
:100F6000014089185CD13046FFF7C2FE0020A06224
:100F700009B0F0BD19051162FFF7B9FE09B0F0BD67
:100F80001746069E316F0868426894B2002C00D163
:100F900026E73888844200D322E73C467A803A46E6
:100FA0008969202934D0EFF31081012080F3108863
:100FB000474A2032346825681540256081F310883F
:100FC000EFF3108180F31088326894688443946052
:100FD00081F31088EFF3108180F3108832689468F1
:100FE0004025AC43946081F310880599F167002196
:100FF0003166EFF3108180F31088306802689A43FD
:10100000026081F31088306FFFF70EF93A46388896
:101010005188401A81B23046FFF768FE09B0F0BD32
:10102000EFF3108183F31088092252011F463368C1
:101030001C6894431C6081F31088EFF3108187F3E0
:101040001088326893683D46BB43936081F31088F3
:10105000316E01290AD1EFF3108185F310883268CF
:1010600013681024A343136081F310880599F16776
:101070000021316671663168896849061FD5EFF332
:10108000108185F31088326893688343936081F3FD
:101090001088306F002812D00C494163FFF7E3F845
:1010A000002800D19CE6306F416B884709B0F0BD45
:1010B000816E002900D193E6884709B0F0BD304623
:1010C000FFF716FE09B0F0BD2001000495140008DA
:1010D000DFFEFFFFF0B583B0002841D0044607468D
:1010E0007437806F002804D100203870204600F04B
:1010F00057F82420A067206801680125A9430160F2
:10110000204600F073FA012827D0606A002802D038
:10111000204600F056F90920C00221684A6882433F
:101120004A6088682A229043886008680126304314
:1011300008600025FD60FFF761FA0346206801683A
:10114000090713D515480090710500222046029327
:1011500000F03CFB002807D00325284603B0F0BD73
:101160000125284603B0F0BD2068029B00684007B7
:101170000CD50A480090B1050022204600F026FB5D
:10118000002803D00325284603B0F0BD2020A06727
:10119000E0673D702566284603B0F0BDFFFFFF0104
:1011A000B0B586B000681749884201D006B0B0BD1E
:1011B00015488168012205925204114381608168BB
:1011C00011400091009901681143016000681040CE
:1011D00000900320049000240394022002900C202D
:1011E000019000980920C00601A9FFF71FF91C25EE
:1011F000284621462246FFF773FA2846FFF764FA8D
:1012000006B0B0BD0044004014100240F0B584B0F8
:10121000C36F0227202B11D10123002918D0002AE7
:1012200016D00124250383680395AB420AD1CB076E
:1012300008D00369002B05D1234609E03B46184638
:1012400004B0F0BD054658352B7F012B3B4602D13B
:10125000184604B0F0BD002303662C7707687F684A
:101260003F0210D5EFF31087029784F31088A6068B
:101270000196066800963768019E3743009E3760E6
:10128000029F87F310886A802A80416543668168DF
:10129000002907D0039A914209D10169002908D198
:1012A000194907E00169002903D07F2102E0AB80E2
:1012B00001E0FF21A980AB622221C167EFF3108119
:1012C00084F31088026897682743976081F3108839
:1012D0008168039A914202D10169002911D00C4919
:1012E0002B774166EFF3108184F3108809225201B5
:1012F000006804681443046081F31088184604B041
:10130000F0BD0249ECE7C046FF010000AB14000845
:101310004B15000870470000F0B581B0836F0226BE
:10132000202B12D1012300290CD0002A0AD0876873
:1013300001252C03A7420CD1CB070AD00369002B4F
:1013400007D12B46184601B0F0BD3346184601B010
:10135000F0BD0095054674352B78012B3346F1D04E
:101360000646503672800023EB603280C164212132
:101370008167A74202D10169002901D00A4900E032
:1013800008492B708166EFF31081009A82F3108870
:101390000068026880241443046081F310881846B2
:1013A00001B0F0BD15170008751700087047FEE77B
:1013B000FEE770477047704780B5FFF723F980BD9F
:1013C0007047B0B5416ACA070CD18A0714D44A07DE
:1013D0001CD40A0724D4CA062CD48A0634D44A065C
:1013E0003CD44CE00122520403685C689443826A56
:1013F00022435A608A07EAD50122120403685C6816
:101400009443C26A22435A604A07E2D501229204F9
:1014100003685C689443026B22435A600A07DAD57A
:101420000122D20303685C689443426B22435A60F2
:10143000CA06D2D50122120303689C689443826BCA
:1014400022439A608A06CAD50122520303689C6827
:101450009443C26B22439A604A0610D501221305B9
:10146000026854689C43056C2C4354609D4206D12D
:1014700003235B0554689C43436C23435360090674
:1014800007D50121C904026853688B43806C184357
:101490005060B0BD80B5406A0146523100220A81D9
:1014A00052214252FFF724FC80BD70B5026801460C
:1014B00058318B88C46F222C0CD1928C1A40436D0A
:1014C0001A804A88521E4A809A1C42654A88002A1D
:1014D00005D070BD906908210143916170BDEFF3A3
:1014E0001083012282F310880924640105682E68A4
:1014F000A6432E6083F31088EFF3108382F31088E5
:101500000468A5689543A56083F310882023C3670A
:1015100000234366046E012C14D10366EFF310839D
:1015200082F310880468256810229543256083F3B0
:1015300010880368DC69E40600D51A620988FFF7A1
:10154000D5FB70BDFFF7E6FE70BD70B502680146C1
:1015500058318B88C46F222C0DD1928C1A40436D68
:101560001A704A88521E4A80426D521C42654A884F
:10157000002A05D070BD906908210143916170BDBA
:10158000EFF31083012282F31088092464010568B7
:101590002E68A6432E6083F31088EFF3108382F346
:1015A00010880468A5689543A56083F310882023FC
:1015B000C36700234366046E012C14D10366EFF366
:1015C000108382F3108804682568102295432560F3
:1015D00083F310880368DC69E40600D51A62098881
:1015E000FFF784FB70BDFFF795FE70BDB0B50446F4
:1015F000006801683D4A0A40A16823690B43656998
:101600001D431543E1690D4305600322120343683E
:101610009343E2681A434260A269236A13430B2290
:101620001202856895431D438560314A904209D076
:10163000304A904208D1304800688007000F2FA23E
:10164000135802E0002300E010230125EA032F488D
:1016500091420FD1082B43D87B441B795B009F44F8
:10166000043F203F193F3F3F1F00FFF7F7F80028D6
:1016700017D113E0082B33D87B441B795B009F44C0
:10168000042F242F1D2F2F2F2300FFF7E7F800280A
:101690001BD117E0FFF7F0F8002802D100251FE06A
:1016A0001046400061684A08101800F04FFA1849C7
:1016B000014015D00007400F08430EE0FFF7DCF8AB
:1016C000002802D100250BE0104661684A08101876
:1016D00000F03CFA80B2102802D32168C8600025CF
:1016E00000206066A0662846B0BDC046F369FFFFD3
:1016F000004400400038014030100240000000006B
:1017000004000000080000000200000000127A003F
:10171000F0FF0000B0B5816F212910D15221415A4C
:1017200000290DD001465231C26C1388104C1C4068
:1017300003681C85921CC2640888401E0880B0BDE6
:10174000EFF31081012282F3108803681C68802562
:10175000AC431C6081F31088EFF3108182F3108892
:101760000068026840231343036081F31088B0BD12
:10177000FF010000B0B5816F21290ED15221415ADD
:1017800000290BD0014652310268C36C1C781485C5
:101790005A1CC2640888401E0880B0BDEFF3108157
:1017A000012282F3108803681C688025AC431C600A
:1017B00081F31088EFF3108182F3108800680268CB
:1017C00040231343036081F31088B0BDF0B587B0A8
:1017D00016460F4605460468E1693940C91B4A426E
:1017E0004A410020B24224D1069304952A4674321D
:1017F0000C9D002D1FD0691C43D1E1693940C91BE4
:101800004A424A41B24214D1E1693940C91B4A42B5
:101810004A41B2420DD1E1693940C91B4A424A41AD
:10182000B24206D1E1693940C91B4A424A41B2423B
:10183000E3D007B0F0BD0392FEF7E0FE049CEFF3A7
:101840001081012080F310880D22520123681D6849
:1018500095431D6081F31088EFF3108180F31088A9
:10186000226893688343936081F310882020A067E7
:101870007C3403990020087020202060032007B0EA
:10188000F0BD0392029001200190C0020590049CDB
:1018900006E0C0693840C01B41424141B1422DD1F0
:1018A000FEF7ACFE0699401AA842C8D82068016825
:1018B0004907EED5C169059A1142EAD0059901623E
:1018C000EFF31080019D85F310880D2149012268F6
:1018D00013688B43136080F31088EFF3108085F357
:1018E000108821688A68AA438A6080F310882020C3
:1018F000A067E06703990C460C34BBE7029807B079
:10190000F0BD000080B58D48FFF7F4F980BDC046FA
:10191000A0B001250E9528040F9083480D90022653
:101920000C9682480B90032002900A908048099000
:1019300004270897FEF770FE0024189417941B9450
:101940001A941994169415941F940520C0041E909F
:101950001D941C96149610201890179514A8FEF745
:10196000B1FF002803D0EFF3108072B6FEE70797AF
:101970001394129411960720109010A8012529465F
:10198000FEF7CAFE002803D0EFF3108072B6FEE720
:101990000396189469040591664F386808433860C7
:1019A0003868084010901098E8043968014339609D
:1019B0003968014010911098029806025E4831463D
:1019C0002246FEF713FE1794169406951595149665
:1019D00014A95948FEF72AFDB868059A1043B86063
:1019E00056480C2141610461C46084604B21C901E7
:1019F000416053490160B9688461C4610462446212
:101A0000114014911499FFF765FB002803D0EFF300
:101A1000108072B6FEE74B4D691D484806220591BD
:101A2000FFF7F4FB06990802049048020190464E25
:101A300018E041480499FEF7D1FD0EA908223F4F56
:101A40003846FFF769FC062238460599FFF7DEFBAA
:101A50006C71AC71EC712C726C72AC722C70642075
:101A6000FEF722FC6979307881420698079A0BD0FC
:101A7000B0798142039807D0307B8142029803D02D
:101A8000B07C8142104644D128700128D1D0A97978
:101A9000022815D1002913D1EA79002A10D12A7A17
:101AA000002A0DD16A7A012A0AD123480499FEF747
:101AB00095FD0CA90822214F3846FFF72DFC1BE0AD
:101AC00002281CD100291AD01B48019E3146FEF77E
:101AD00085FDA8790CA98870E879C870287A087102
:101AE000687A48710822154F3846FFF715FC1248EE
:101AF0003146154EFEF772FD38460622A5E704284A
:101B00000BD00328ABD10C480499FEF767FD0AA956
:101B1000D0E7287801288CD0B9E707480499FEF768
:101B20005DFD08A9C6E7C0460000010100000102F2
:101B30000000010314100240000800489400002037
:101B400000440040880000200000002043088B4231
:101B50001AD3002203098B4279D3030A8B425ED346
:101B6000030B8B4242D3030C8B4227D30902FF2283
:101B700012BA030C8B4202D31212090203D0030BD8
:101B80008B4233D31AE0D3E0411A8041401C7047A6
:101B900003460B4371D443088B42F5D3002203095B
:101BA0008B4254D3030A8B4239D3030B8B421DD390
:101BB000030C8B4202D394466EE0090AC30B8B429E
:101BC00001D3CB03C01A5241830B8B4201D38B0349
:101BD000C01A5241430B8B4201D34B03C01A5241EE
:101BE000030B8B4201D30B03C01A5241C30A8B4231
:101BF00001D3CB02C01A5241830A8B4201D38B021C
:101C0000C01A5241430A8B4201D34B02C01A5241BF
:101C1000030A8B4201D30B02C01A5241CDD2C30931
:101C20008B4201D3CB01C01A524183098B4201D3AD
:101C30008B01C01A524143098B4201D34B01C01A98
:101C4000524103098B4201D30B01C01A5241C30810
:101C50008B4201D3CB00C01A524183088B4201D37F
:101C60008B00C01A524143088B4201D34B00C01A6B
:101C70005241411A524110007047CA0F00D04942E8
:101C8000031000D34042534000229C4603098B427C
:101C90002DD3030A8B4212D38901FC2212BA030A04
:101CA0008B420CD3890192118B4208D38901921186
:101CB0008B4204D3890137D0921100E08909C3090E
:101CC0008B4201D3CB01C01A524183098B4201D30D
:101CD0008B01C01A524143098B4201D34B01C01AF8
:101CE000524103098B4201D30B01C01A5241C30870
:101CF0008B4201D3CB00C01A524183088B4201D3DF
:101D00008B00C01A5241D9D243088B4201D34B00F9
:101D1000C01A5241411A00D2014652411046634650
:101D20005B1000D34042704763465B1000D34042D3
:101D300001B50021004201D0C9430846C046C04653
:101D400002BD0000000000000000010203040607BD
:101D5000080900000000010203040203040506074D
:101D600008090A0B0C0D0E0F1010010203040506E2
:101D70000708090A0B0C0D0E0F100000A01D00082B
:101D8000000000202800000000010008C81D000815
:101D900028000020180700001C01000800000000B7
:101DA000010000000100020000000101030000002A
:101DB0000102040000000103010000000400000013
:081DC00000127A00000000008F
:04000005080000BD32
:00000001FF
